{
  "_format": "hh-sol-artifact-1",
  "contractName": "ClaimRouter",
  "sourceName": "contracts/ClaimRouter.sol",
  "abi": [
    {
      "inputs": [
        {
          "internalType": "address",
          "name": "_timelock",
          "type": "address"
        }
      ],
      "stateMutability": "nonpayable",
      "type": "constructor"
    },
    {
      "inputs": [
        {
          "internalType": "string",
          "name": "param",
          "type": "string"
        }
      ],
      "name": "InvalidParameter",
      "type": "error"
    },
    {
      "inputs": [],
      "name": "ReentrancyGuardReentrantCall",
      "type": "error"
    },
    {
      "inputs": [
        {
          "internalType": "string",
          "name": "role",
          "type": "string"
        }
      ],
      "name": "Unauthorized",
      "type": "error"
    },
    {
      "anonymous": false,
      "inputs": [
        {
          "indexed": true,
          "internalType": "address",
          "name": "caller",
          "type": "address"
        },
        {
          "indexed": true,
          "internalType": "uint256",
          "name": "successful",
          "type": "uint256"
        },
        {
          "indexed": true,
          "internalType": "uint256",
          "name": "failed",
          "type": "uint256"
        },
        {
          "indexed": false,
          "internalType": "uint256",
          "name": "totalGross",
          "type": "uint256"
        },
        {
          "indexed": false,
          "internalType": "uint256",
          "name": "totalFees",
          "type": "uint256"
        },
        {
          "indexed": false,
          "internalType": "uint256",
          "name": "totalNet",
          "type": "uint256"
        },
        {
          "indexed": false,
          "internalType": "uint256",
          "name": "timestamp",
          "type": "uint256"
        }
      ],
      "name": "BatchClaimed",
      "type": "event"
    },
    {
      "anonymous": false,
      "inputs": [
        {
          "indexed": true,
          "internalType": "address",
          "name": "vault",
          "type": "address"
        },
        {
          "indexed": true,
          "internalType": "address",
          "name": "account",
          "type": "address"
        },
        {
          "indexed": false,
          "internalType": "string",
          "name": "reason",
          "type": "string"
        }
      ],
      "name": "ClaimFailed",
      "type": "event"
    },
    {
      "anonymous": false,
      "inputs": [
        {
          "indexed": true,
          "internalType": "address",
          "name": "vault",
          "type": "address"
        },
        {
          "indexed": true,
          "internalType": "address",
          "name": "account",
          "type": "address"
        },
        {
          "indexed": true,
          "internalType": "address",
          "name": "factory",
          "type": "address"
        },
        {
          "indexed": false,
          "internalType": "uint256",
          "name": "gross",
          "type": "uint256"
        },
        {
          "indexed": false,
          "internalType": "uint256",
          "name": "fee",
          "type": "uint256"
        },
        {
          "indexed": false,
          "internalType": "uint256",
          "name": "net",
          "type": "uint256"
        }
      ],
      "name": "ClaimSucceeded",
      "type": "event"
    },
    {
      "anonymous": false,
      "inputs": [
        {
          "indexed": true,
          "internalType": "address",
          "name": "factory",
          "type": "address"
        },
        {
          "indexed": true,
          "internalType": "bool",
          "name": "approved",
          "type": "bool"
        }
      ],
      "name": "FactoryApprovalUpdated",
      "type": "event"
    },
    {
      "anonymous": false,
      "inputs": [
        {
          "indexed": true,
          "internalType": "uint256",
          "name": "oldSize",
          "type": "uint256"
        },
        {
          "indexed": true,
          "internalType": "uint256",
          "name": "newSize",
          "type": "uint256"
        }
      ],
      "name": "MaxBatchSizeUpdated",
      "type": "event"
    },
    {
      "inputs": [],
      "name": "TIMELOCK",
      "outputs": [
        {
          "internalType": "address",
          "name": "",
          "type": "address"
        }
      ],
      "stateMutability": "view",
      "type": "function"
    },
    {
      "inputs": [
        {
          "internalType": "address",
          "name": "",
          "type": "address"
        }
      ],
      "name": "approvedFactories",
      "outputs": [
        {
          "internalType": "bool",
          "name": "",
          "type": "bool"
        }
      ],
      "stateMutability": "view",
      "type": "function"
    },
    {
      "inputs": [
        {
          "components": [
            {
              "internalType": "address",
              "name": "vault",
              "type": "address"
            },
            {
              "internalType": "address",
              "name": "account",
              "type": "address"
            },
            {
              "internalType": "uint256",
              "name": "cumulativeAmount",
              "type": "uint256"
            },
            {
              "internalType": "bytes",
              "name": "signature",
              "type": "bytes"
            }
          ],
          "internalType": "struct ClaimRouter.ClaimData[]",
          "name": "claims",
          "type": "tuple[]"
        }
      ],
      "name": "claimAll",
      "outputs": [
        {
          "internalType": "uint256",
          "name": "successful",
          "type": "uint256"
        },
        {
          "internalType": "uint256",
          "name": "failed",
          "type": "uint256"
        }
      ],
      "stateMutability": "nonpayable",
      "type": "function"
    },
    {
      "inputs": [],
      "name": "maxBatchSize",
      "outputs": [
        {
          "internalType": "uint256",
          "name": "",
          "type": "uint256"
        }
      ],
      "stateMutability": "view",
      "type": "function"
    },
    {
      "inputs": [
        {
          "internalType": "address",
          "name": "factory",
          "type": "address"
        },
        {
          "internalType": "bool",
          "name": "approved",
          "type": "bool"
        }
      ],
      "name": "setFactoryApproved",
      "outputs": [],
      "stateMutability": "nonpayable",
      "type": "function"
    },
    {
      "inputs": [
        {
          "internalType": "uint256",
          "name": "newMaxSize",
          "type": "uint256"
        }
      ],
      "name": "setMaxBatchSize",
      "outputs": [],
      "stateMutability": "nonpayable",
      "type": "function"
    }
  ],
  "bytecode": "0x60a0604052601460015534801561001557600080fd5b506040516110cf3803806110cf83398101604081905261003491610090565b60016000556001600160a01b03811661007f576040516305519d6f60e51b815260206004820152600860248201526774696d656c6f636b60c01b604482015260640160405180910390fd5b6001600160a01b03166080526100c0565b6000602082840312156100a257600080fd5b81516001600160a01b03811681146100b957600080fd5b9392505050565b608051610fe66100e96000396000818161011b01528181610a130152610af80152610fe66000f3fe608060405234801561001057600080fd5b50600436106100725760003560e01c8063304211d111610050578063304211d1146100d05780633777261d146100e35780637aadef8b1461011657600080fd5b8063248c77e8146100775780632913daa0146100a45780632b26a6bf146100bb575b600080fd5b61008a610085366004610c10565b610155565b604080519283526020830191909152015b60405180910390f35b6100ad60015481565b60405190815260200161009b565b6100ce6100c9366004610c87565b610a08565b005b6100ce6100de366004610cb8565b610aed565b6101066100f1366004610cf6565b60026020526000908152604090205460ff1681565b604051901515815260200161009b565b61013d7f000000000000000000000000000000000000000000000000000000000000000081565b6040516001600160a01b03909116815260200161009b565b600080610160610be6565b8280158061016f575060015481115b156101af576040516305519d6f60e51b815260206004820152600a60248201526962617463685f73697a6560b01b60448201526064015b60405180910390fd5b6000806000808467ffffffffffffffff8111156101ce576101ce610d1a565b6040519080825280602002602001820160405280156101f7578160200160208202803683370190505b50905060005b8581101561053a5789898281811061021757610217610d30565b90506020028101906102299190610d46565b610237906020810190610cf6565b6001600160a01b03166388cc58e46040518163ffffffff1660e01b8152600401602060405180830381865afa925050508015610290575060408051601f3d908101601f1916820190925261028d91810190610d66565b60015b6103b85761029d87610d99565b96508989828181106102b1576102b1610d30565b90506020028101906102c39190610d46565b6102d4906040810190602001610cf6565b6001600160a01b03168a8a838181106102ef576102ef610d30565b90506020028101906103019190610d46565b61030f906020810190610cf6565b6001600160a01b03167f941d4080bf45ad4f4b547a2c095bc203ff76ba1f67d7e1102d7059f686d617c8604051610377906020808252600d908201527f496e76616c6964207661756c7400000000000000000000000000000000000000604082015260600190565b60405180910390a3600082828151811061039357610393610d30565b60200260200101906001600160a01b031690816001600160a01b031681525050610532565b6001600160a01b03811660009081526002602052604090205460ff166104fc576103e188610d99565b97508a8a838181106103f5576103f5610d30565b90506020028101906104079190610d46565b610418906040810190602001610cf6565b6001600160a01b03168b8b8481811061043357610433610d30565b90506020028101906104459190610d46565b610453906020810190610cf6565b6001600160a01b03167f941d4080bf45ad4f4b547a2c095bc203ff76ba1f67d7e1102d7059f686d617c86040516104bb9060208082526014908201527f466163746f7279206e6f7420617070726f766564000000000000000000000000604082015260600190565b60405180910390a360008383815181106104d7576104d7610d30565b60200260200101906001600160a01b031690816001600160a01b031681525050610530565b8083838151811061050f5761050f610d30565b60200260200101906001600160a01b031690816001600160a01b0316815250505b505b6001016101fd565b5060005b858110156109a45760006001600160a01b031682828151811061056357610563610d30565b60200260200101516001600160a01b0316036105815760010161053e565b89898281811061059357610593610d30565b90506020028101906105a59190610d46565b6105b3906020810190610cf6565b6001600160a01b031663488df2068b8b848181106105d3576105d3610d30565b90506020028101906105e59190610d46565b6105f6906040810190602001610cf6565b8c8c8581811061060857610608610d30565b905060200281019061061a9190610d46565b604001358d8d8681811061063057610630610d30565b90506020028101906106429190610d46565b610650906060810190610db2565b6040518563ffffffff1660e01b815260040161066f9493929190610df9565b6060604051808303816000875af19250505080156106aa575060408051601f3d908101601f191682019092526106a791810190610e3f565b60015b610888576106b6610e6d565b806308c379a00361079657506106ca610ec4565b806106d55750610798565b6106de88610d99565b97508a8a838181106106f2576106f2610d30565b90506020028101906107049190610d46565b610715906040810190602001610cf6565b6001600160a01b03168b8b8481811061073057610730610d30565b90506020028101906107429190610d46565b610750906020810190610cf6565b6001600160a01b03167f941d4080bf45ad4f4b547a2c095bc203ff76ba1f67d7e1102d7059f686d617c8836040516107889190610f49565b60405180910390a35061099c565b505b6107a187610d99565b96508989828181106107b5576107b5610d30565b90506020028101906107c79190610d46565b6107d8906040810190602001610cf6565b6001600160a01b03168a8a838181106107f3576107f3610d30565b90506020028101906108059190610d46565b610813906020810190610cf6565b6001600160a01b03167f941d4080bf45ad4f4b547a2c095bc203ff76ba1f67d7e1102d7059f686d617c860405161087b9060208082526011908201527f4c6f772d6c6576656c206661696c757265000000000000000000000000000000604082015260600190565b60405180910390a361099c565b6108918b610d99565b9a5061089d8389610f97565b97506108a98288610f97565b96506108b58187610f97565b95508484815181106108c9576108c9610d30565b60200260200101516001600160a01b03168d8d868181106108ec576108ec610d30565b90506020028101906108fe9190610d46565b61090f906040810190602001610cf6565b6001600160a01b03168e8e8781811061092a5761092a610d30565b905060200281019061093c9190610d46565b61094a906020810190610cf6565b60408051878152602081018790529081018590526001600160a01b0391909116907fd2829588182189e58f57c14d572c28ea057ea2674f88874954647aaed78c9d879060600160405180910390a45050505b60010161053e565b5060408051858152602081018590529081018390524260608201528690889033907f0f12314c7c7ce6bfd46ce5c02e3c4842730b024df72f9ec83afe8d75e1622cf29060800160405180910390a45050505050610a016001600055565b9250929050565b336001600160a01b037f00000000000000000000000000000000000000000000000000000000000000001614610a6c5760405163973d02cb60e01b815260206004820152600860248201526774696d656c6f636b60c01b60448201526064016101a6565b801580610a795750606481115b15610ab4576040516305519d6f60e51b815260206004820152600a60248201526962617463685f73697a6560b01b60448201526064016101a6565b6001805490829055604051829082907f6b141d34195f1cbfa2080571bebbe19ad6d201cc0d1d53c70550795d14a4be8390600090a35050565b336001600160a01b037f00000000000000000000000000000000000000000000000000000000000000001614610b515760405163973d02cb60e01b815260206004820152600860248201526774696d656c6f636b60c01b60448201526064016101a6565b6001600160a01b038216610b92576040516305519d6f60e51b8152602060048201526007602482015266666163746f727960c81b60448201526064016101a6565b6001600160a01b038216600081815260026020526040808220805460ff191685151590811790915590519092917f563ef94c18617991050b8ba10ede61c82ba2c4a8cc8d30711850cb36fd2b075e91a35050565b600260005403610c0957604051633ee5aeb560e01b815260040160405180910390fd5b6002600055565b60008060208385031215610c2357600080fd5b823567ffffffffffffffff811115610c3a57600080fd5b8301601f81018513610c4b57600080fd5b803567ffffffffffffffff811115610c6257600080fd5b8560208260051b8401011115610c7757600080fd5b6020919091019590945092505050565b600060208284031215610c9957600080fd5b5035919050565b6001600160a01b0381168114610cb557600080fd5b50565b60008060408385031215610ccb57600080fd5b8235610cd681610ca0565b915060208301358015158114610ceb57600080fd5b809150509250929050565b600060208284031215610d0857600080fd5b8135610d1381610ca0565b9392505050565b634e487b7160e01b600052604160045260246000fd5b634e487b7160e01b600052603260045260246000fd5b60008235607e19833603018112610d5c57600080fd5b9190910192915050565b600060208284031215610d7857600080fd5b8151610d1381610ca0565b634e487b7160e01b600052601160045260246000fd5b600060018201610dab57610dab610d83565b5060010190565b6000808335601e19843603018112610dc957600080fd5b83018035915067ffffffffffffffff821115610de457600080fd5b602001915036819003821315610a0157600080fd5b6001600160a01b038516815283602082015260606040820152816060820152818360808301376000818301608090810191909152601f909201601f191601019392505050565b600080600060608486031215610e5457600080fd5b5050815160208301516040909301519094929350919050565b600060033d1115610e865760046000803e5060005160e01c5b90565b601f8201601f1916810167ffffffffffffffff81118282101715610ebd57634e487b7160e01b600052604160045260246000fd5b6040525050565b600060443d1015610ed25790565b6040513d600319016004823e80513d602482011167ffffffffffffffff82111715610efc57505090565b808201805167ffffffffffffffff811115610f18575050505090565b3d8401600319018282016020011115610f32575050505090565b610f4160208285010185610e89565b509392505050565b602081526000825180602084015260005b81811015610f775760208186018101516040868401015201610f5a565b506000604082850101526040601f19601f83011684010191505092915050565b80820180821115610faa57610faa610d83565b9291505056fea26469706673582212205fe07f39600048af75593feccd0d5a093267797660192252987ed14c6b06e40264736f6c634300081e0033",
  "linkReferences": {},
  "deployedLinkReferences": {}
}