{
  "_format": "hh-sol-artifact-1",
  "contractName": "ClaimRouter",
  "sourceName": "contracts/ClaimRouter.sol",
  "abi": [
    {
      "inputs": [
        {
          "internalType": "address",
          "name": "_timelock",
          "type": "address"
        }
      ],
      "stateMutability": "nonpayable",
      "type": "constructor"
    },
    {
      "inputs": [
        {
          "internalType": "string",
          "name": "param",
          "type": "string"
        }
      ],
      "name": "InvalidParameter",
      "type": "error"
    },
    {
      "inputs": [],
      "name": "ReentrancyGuardReentrantCall",
      "type": "error"
    },
    {
      "inputs": [
        {
          "internalType": "string",
          "name": "role",
          "type": "string"
        }
      ],
      "name": "Unauthorized",
      "type": "error"
    },
    {
      "anonymous": false,
      "inputs": [
        {
          "indexed": true,
          "internalType": "address",
          "name": "caller",
          "type": "address"
        },
        {
          "indexed": false,
          "internalType": "uint256",
          "name": "successful",
          "type": "uint256"
        },
        {
          "indexed": false,
          "internalType": "uint256",
          "name": "failed",
          "type": "uint256"
        },
        {
          "indexed": false,
          "internalType": "uint256",
          "name": "totalGross",
          "type": "uint256"
        },
        {
          "indexed": false,
          "internalType": "uint256",
          "name": "totalFees",
          "type": "uint256"
        },
        {
          "indexed": false,
          "internalType": "uint256",
          "name": "totalNet",
          "type": "uint256"
        },
        {
          "indexed": false,
          "internalType": "uint256",
          "name": "timestamp",
          "type": "uint256"
        }
      ],
      "name": "BatchClaimed",
      "type": "event"
    },
    {
      "anonymous": false,
      "inputs": [
        {
          "indexed": true,
          "internalType": "address",
          "name": "vault",
          "type": "address"
        },
        {
          "indexed": true,
          "internalType": "address",
          "name": "account",
          "type": "address"
        },
        {
          "indexed": false,
          "internalType": "string",
          "name": "reason",
          "type": "string"
        }
      ],
      "name": "ClaimFailed",
      "type": "event"
    },
    {
      "anonymous": false,
      "inputs": [
        {
          "indexed": true,
          "internalType": "address",
          "name": "vault",
          "type": "address"
        },
        {
          "indexed": true,
          "internalType": "address",
          "name": "account",
          "type": "address"
        },
        {
          "indexed": true,
          "internalType": "address",
          "name": "factory",
          "type": "address"
        },
        {
          "indexed": false,
          "internalType": "uint256",
          "name": "gross",
          "type": "uint256"
        },
        {
          "indexed": false,
          "internalType": "uint256",
          "name": "fee",
          "type": "uint256"
        },
        {
          "indexed": false,
          "internalType": "uint256",
          "name": "net",
          "type": "uint256"
        }
      ],
      "name": "ClaimSucceeded",
      "type": "event"
    },
    {
      "anonymous": false,
      "inputs": [
        {
          "indexed": true,
          "internalType": "address",
          "name": "factory",
          "type": "address"
        },
        {
          "indexed": false,
          "internalType": "bool",
          "name": "approved",
          "type": "bool"
        }
      ],
      "name": "FactoryApprovalUpdated",
      "type": "event"
    },
    {
      "anonymous": false,
      "inputs": [
        {
          "indexed": false,
          "internalType": "uint256",
          "name": "oldSize",
          "type": "uint256"
        },
        {
          "indexed": false,
          "internalType": "uint256",
          "name": "newSize",
          "type": "uint256"
        }
      ],
      "name": "MaxBatchSizeUpdated",
      "type": "event"
    },
    {
      "inputs": [
        {
          "internalType": "address",
          "name": "",
          "type": "address"
        }
      ],
      "name": "approvedFactories",
      "outputs": [
        {
          "internalType": "bool",
          "name": "",
          "type": "bool"
        }
      ],
      "stateMutability": "view",
      "type": "function"
    },
    {
      "inputs": [
        {
          "components": [
            {
              "internalType": "address",
              "name": "vault",
              "type": "address"
            },
            {
              "internalType": "address",
              "name": "account",
              "type": "address"
            },
            {
              "internalType": "uint256",
              "name": "cumulativeAmount",
              "type": "uint256"
            },
            {
              "internalType": "uint256",
              "name": "deadline",
              "type": "uint256"
            },
            {
              "internalType": "bytes",
              "name": "signature",
              "type": "bytes"
            }
          ],
          "internalType": "struct ClaimRouter.ClaimData[]",
          "name": "claims",
          "type": "tuple[]"
        }
      ],
      "name": "claimAll",
      "outputs": [
        {
          "internalType": "uint256",
          "name": "successful",
          "type": "uint256"
        },
        {
          "internalType": "uint256",
          "name": "failed",
          "type": "uint256"
        }
      ],
      "stateMutability": "nonpayable",
      "type": "function"
    },
    {
      "inputs": [],
      "name": "maxBatchSize",
      "outputs": [
        {
          "internalType": "uint256",
          "name": "",
          "type": "uint256"
        }
      ],
      "stateMutability": "view",
      "type": "function"
    },
    {
      "inputs": [
        {
          "internalType": "address",
          "name": "factory",
          "type": "address"
        },
        {
          "internalType": "bool",
          "name": "approved",
          "type": "bool"
        }
      ],
      "name": "setFactoryApproved",
      "outputs": [],
      "stateMutability": "nonpayable",
      "type": "function"
    },
    {
      "inputs": [
        {
          "internalType": "uint256",
          "name": "newMaxSize",
          "type": "uint256"
        }
      ],
      "name": "setMaxBatchSize",
      "outputs": [],
      "stateMutability": "nonpayable",
      "type": "function"
    },
    {
      "inputs": [],
      "name": "timelock",
      "outputs": [
        {
          "internalType": "address",
          "name": "",
          "type": "address"
        }
      ],
      "stateMutability": "view",
      "type": "function"
    }
  ],
  "bytecode": "0x60a0604052601460015534801561001557600080fd5b50604051610fdf380380610fdf83398101604081905261003491610090565b60016000556001600160a01b03811661007f576040516305519d6f60e51b815260206004820152600860248201526774696d656c6f636b60c01b604482015260640160405180910390fd5b6001600160a01b03166080526100c0565b6000602082840312156100a257600080fd5b81516001600160a01b03811681146100b957600080fd5b9392505050565b608051610ef66100e96000396000818161011b0152818161016001526102560152610ef66000f3fe608060405234801561001057600080fd5b50600436106100725760003560e01c80633777261d116100505780633777261d146100bb5780633c908cfc146100ee578063d33219b41461011657600080fd5b80632913daa0146100775780632b26a6bf14610093578063304211d1146100a8575b600080fd5b61008060015481565b6040519081526020015b60405180910390f35b6100a66100a1366004610b2f565b610155565b005b6100a66100b6366004610b60565b61024b565b6100de6100c9366004610b9e565b60026020526000908152604090205460ff1681565b604051901515815260200161008a565b6101016100fc366004610bc2565b61034f565b6040805192835260208301919091520161008a565b61013d7f000000000000000000000000000000000000000000000000000000000000000081565b6040516001600160a01b03909116815260200161008a565b336001600160a01b037f000000000000000000000000000000000000000000000000000000000000000016146101be5760405163973d02cb60e01b815260206004820152600860248201526774696d656c6f636b60c01b60448201526064015b60405180910390fd5b8015806101cb5750606481115b15610206576040516305519d6f60e51b815260206004820152600a60248201526962617463685f73697a6560b01b60448201526064016101b5565b600180549082905560408051828152602081018490527f6b141d34195f1cbfa2080571bebbe19ad6d201cc0d1d53c70550795d14a4be83910160405180910390a15050565b336001600160a01b037f000000000000000000000000000000000000000000000000000000000000000016146102af5760405163973d02cb60e01b815260206004820152600860248201526774696d656c6f636b60c01b60448201526064016101b5565b6001600160a01b0382166102f0576040516305519d6f60e51b8152602060048201526007602482015266666163746f727960c81b60448201526064016101b5565b6001600160a01b038216600081815260026020908152604091829020805460ff191685151590811790915591519182527f563ef94c18617991050b8ba10ede61c82ba2c4a8cc8d30711850cb36fd2b075e910160405180910390a25050565b60008061035a610b05565b821580610368575060015483115b156103a3576040516305519d6f60e51b815260206004820152600a60248201526962617463685f73697a6560b01b60448201526064016101b5565b6000806000805b86811015610a995760008888838181106103c6576103c6610c39565b90506020028101906103d89190610c4f565b6103e6906020810190610b9e565b6001600160a01b03166388cc58e46040518163ffffffff1660e01b8152600401602060405180830381865afa92505050801561043f575060408051601f3d908101601f1916820190925261043c91810190610c6f565b60015b610543578561044d81610ca2565b96505088888381811061046257610462610c39565b90506020028101906104749190610c4f565b610485906040810190602001610b9e565b6001600160a01b03168989848181106104a0576104a0610c39565b90506020028101906104b29190610c4f565b6104c0906020810190610b9e565b6001600160a01b03167f941d4080bf45ad4f4b547a2c095bc203ff76ba1f67d7e1102d7059f686d617c86040516105359060208082526024908201527f496e76616c6964207661756c74206f7220666163746f72792063616c6c2066616040820152631a5b195960e21b606082015260800190565b60405180910390a350610a91565b6001600160a01b038116600090815260026020526040902054909150819060ff1661065c578661057281610ca2565b97505089898481811061058757610587610c39565b90506020028101906105999190610c4f565b6105aa906040810190602001610b9e565b6001600160a01b03168a8a858181106105c5576105c5610c39565b90506020028101906105d79190610c4f565b6105e5906020810190610b9e565b6001600160a01b03167f941d4080bf45ad4f4b547a2c095bc203ff76ba1f67d7e1102d7059f686d617c860405161064d9060208082526014908201527f466163746f7279206e6f7420617070726f766564000000000000000000000000604082015260600190565b60405180910390a35050610a91565b5088888381811061066f5761066f610c39565b90506020028101906106819190610c4f565b61068f906020810190610b9e565b6001600160a01b03166306fffdab8a8a858181106106af576106af610c39565b90506020028101906106c19190610c4f565b6106d2906040810190602001610b9e565b8b8b868181106106e4576106e4610c39565b90506020028101906106f69190610c4f565b604001358c8c8781811061070c5761070c610c39565b905060200281019061071e9190610c4f565b606001358d8d8881811061073457610734610c39565b90506020028101906107469190610c4f565b610754906080810190610cbb565b6040518663ffffffff1660e01b8152600401610774959493929190610d02565b6060604051808303816000875af19250505080156107af575060408051601f3d908101601f191682019092526107ac91810190610d4f565b60015b610991576107bb610d7d565b806308c379a00361089d57506107cf610dd4565b806107da575061089f565b866107e481610ca2565b9750508989848181106107f9576107f9610c39565b905060200281019061080b9190610c4f565b61081c906040810190602001610b9e565b6001600160a01b03168a8a8581811061083757610837610c39565b90506020028101906108499190610c4f565b610857906020810190610b9e565b6001600160a01b03167f941d4080bf45ad4f4b547a2c095bc203ff76ba1f67d7e1102d7059f686d617c88360405161088f9190610e59565b60405180910390a350610a8f565b505b856108a981610ca2565b9650508888838181106108be576108be610c39565b90506020028101906108d09190610c4f565b6108e1906040810190602001610b9e565b6001600160a01b03168989848181106108fc576108fc610c39565b905060200281019061090e9190610c4f565b61091c906020810190610b9e565b6001600160a01b03167f941d4080bf45ad4f4b547a2c095bc203ff76ba1f67d7e1102d7059f686d617c86040516109849060208082526011908201527f4c6f772d6c6576656c206661696c757265000000000000000000000000000000604082015260600190565b60405180910390a3610a8f565b8961099b81610ca2565b9a506109a990508389610ea7565b97506109b58288610ea7565b96506109c18187610ea7565b9550836001600160a01b03168c8c878181106109df576109df610c39565b90506020028101906109f19190610c4f565b610a02906040810190602001610b9e565b6001600160a01b03168d8d88818110610a1d57610a1d610c39565b9050602002810190610a2f9190610c4f565b610a3d906020810190610b9e565b60408051878152602081018790529081018590526001600160a01b0391909116907fd2829588182189e58f57c14d572c28ea057ea2674f88874954647aaed78c9d879060600160405180910390a45050505b505b6001016103aa565b50604080518681526020810186905290810184905260608101839052608081018290524260a082015233907f0f12314c7c7ce6bfd46ce5c02e3c4842730b024df72f9ec83afe8d75e1622cf29060c00160405180910390a2505050610afe6001600055565b9250929050565b600260005403610b2857604051633ee5aeb560e01b815260040160405180910390fd5b6002600055565b600060208284031215610b4157600080fd5b5035919050565b6001600160a01b0381168114610b5d57600080fd5b50565b60008060408385031215610b7357600080fd5b8235610b7e81610b48565b915060208301358015158114610b9357600080fd5b809150509250929050565b600060208284031215610bb057600080fd5b8135610bbb81610b48565b9392505050565b60008060208385031215610bd557600080fd5b823567ffffffffffffffff811115610bec57600080fd5b8301601f81018513610bfd57600080fd5b803567ffffffffffffffff811115610c1457600080fd5b8560208260051b8401011115610c2957600080fd5b6020919091019590945092505050565b634e487b7160e01b600052603260045260246000fd5b60008235609e19833603018112610c6557600080fd5b9190910192915050565b600060208284031215610c8157600080fd5b8151610bbb81610b48565b634e487b7160e01b600052601160045260246000fd5b600060018201610cb457610cb4610c8c565b5060010190565b6000808335601e19843603018112610cd257600080fd5b83018035915067ffffffffffffffff821115610ced57600080fd5b602001915036819003821315610afe57600080fd5b6001600160a01b038616815284602082015283604082015260806060820152816080820152818360a0830137600081830160a090810191909152601f909201601f19160101949350505050565b600080600060608486031215610d6457600080fd5b5050815160208301516040909301519094929350919050565b600060033d1115610d965760046000803e5060005160e01c5b90565b601f8201601f1916810167ffffffffffffffff81118282101715610dcd57634e487b7160e01b600052604160045260246000fd5b6040525050565b600060443d1015610de25790565b6040513d600319016004823e80513d602482011167ffffffffffffffff82111715610e0c57505090565b808201805167ffffffffffffffff811115610e28575050505090565b3d8401600319018282016020011115610e42575050505090565b610e5160208285010185610d99565b509392505050565b602081526000825180602084015260005b81811015610e875760208186018101516040868401015201610e6a565b506000604082850101526040601f19601f83011684010191505092915050565b80820180821115610eba57610eba610c8c565b9291505056fea26469706673582212208e8ee28c4e2e028101857e0780fbfe27e34e1b61d3fe889e446feb934aca81e464736f6c634300081e0033",
  "linkReferences": {},
  "deployedLinkReferences": {}
}