{
  "_format": "hh-sol-artifact-1",
  "contractName": "RewardPoolImplementation",
  "sourceName": "contracts/RewardPoolImplementation.sol",
  "abi": [
    {
      "inputs": [],
      "stateMutability": "nonpayable",
      "type": "constructor"
    },
    {
      "inputs": [
        {
          "internalType": "string",
          "name": "resource",
          "type": "string"
        }
      ],
      "name": "AlreadyExists",
      "type": "error"
    },
    {
      "inputs": [],
      "name": "ECDSAInvalidSignature",
      "type": "error"
    },
    {
      "inputs": [
        {
          "internalType": "uint256",
          "name": "length",
          "type": "uint256"
        }
      ],
      "name": "ECDSAInvalidSignatureLength",
      "type": "error"
    },
    {
      "inputs": [
        {
          "internalType": "bytes32",
          "name": "s",
          "type": "bytes32"
        }
      ],
      "name": "ECDSAInvalidSignatureS",
      "type": "error"
    },
    {
      "inputs": [],
      "name": "EnforcedPause",
      "type": "error"
    },
    {
      "inputs": [],
      "name": "ExpectedPause",
      "type": "error"
    },
    {
      "inputs": [],
      "name": "InvalidInitialization",
      "type": "error"
    },
    {
      "inputs": [
        {
          "internalType": "string",
          "name": "param",
          "type": "string"
        }
      ],
      "name": "InvalidParameter",
      "type": "error"
    },
    {
      "inputs": [],
      "name": "NotInitializing",
      "type": "error"
    },
    {
      "inputs": [],
      "name": "ReentrancyGuardReentrantCall",
      "type": "error"
    },
    {
      "inputs": [
        {
          "internalType": "address",
          "name": "token",
          "type": "address"
        }
      ],
      "name": "SafeERC20FailedOperation",
      "type": "error"
    },
    {
      "inputs": [
        {
          "internalType": "string",
          "name": "check",
          "type": "string"
        }
      ],
      "name": "SecurityViolation",
      "type": "error"
    },
    {
      "inputs": [
        {
          "internalType": "string",
          "name": "role",
          "type": "string"
        }
      ],
      "name": "Unauthorized",
      "type": "error"
    },
    {
      "anonymous": false,
      "inputs": [
        {
          "indexed": true,
          "internalType": "address",
          "name": "account",
          "type": "address"
        },
        {
          "indexed": true,
          "internalType": "address",
          "name": "token",
          "type": "address"
        },
        {
          "indexed": false,
          "internalType": "uint256",
          "name": "cumulativeAmount",
          "type": "uint256"
        }
      ],
      "name": "ClaimedMinimal",
      "type": "event"
    },
    {
      "anonymous": false,
      "inputs": [],
      "name": "EIP712DomainChanged",
      "type": "event"
    },
    {
      "anonymous": false,
      "inputs": [
        {
          "indexed": true,
          "internalType": "address",
          "name": "to",
          "type": "address"
        },
        {
          "indexed": false,
          "internalType": "uint256",
          "name": "amount",
          "type": "uint256"
        }
      ],
      "name": "EmergencySweep",
      "type": "event"
    },
    {
      "anonymous": false,
      "inputs": [
        {
          "indexed": true,
          "internalType": "address",
          "name": "to",
          "type": "address"
        },
        {
          "indexed": false,
          "internalType": "string",
          "name": "justification",
          "type": "string"
        },
        {
          "indexed": false,
          "internalType": "uint256",
          "name": "executionTimestamp",
          "type": "uint256"
        }
      ],
      "name": "EmergencySweepNoticeInitiated",
      "type": "event"
    },
    {
      "anonymous": false,
      "inputs": [
        {
          "indexed": true,
          "internalType": "address",
          "name": "funder",
          "type": "address"
        },
        {
          "indexed": true,
          "internalType": "address",
          "name": "token",
          "type": "address"
        },
        {
          "indexed": false,
          "internalType": "uint256",
          "name": "amount",
          "type": "uint256"
        }
      ],
      "name": "Funded",
      "type": "event"
    },
    {
      "anonymous": false,
      "inputs": [
        {
          "indexed": false,
          "internalType": "uint64",
          "name": "version",
          "type": "uint64"
        }
      ],
      "name": "Initialized",
      "type": "event"
    },
    {
      "anonymous": false,
      "inputs": [
        {
          "indexed": false,
          "internalType": "address",
          "name": "account",
          "type": "address"
        }
      ],
      "name": "Paused",
      "type": "event"
    },
    {
      "anonymous": false,
      "inputs": [
        {
          "indexed": true,
          "internalType": "address",
          "name": "oldTreasury",
          "type": "address"
        },
        {
          "indexed": true,
          "internalType": "address",
          "name": "newTreasury",
          "type": "address"
        }
      ],
      "name": "PlatformTreasuryUpdated",
      "type": "event"
    },
    {
      "anonymous": false,
      "inputs": [
        {
          "indexed": false,
          "internalType": "address",
          "name": "account",
          "type": "address"
        }
      ],
      "name": "Unpaused",
      "type": "event"
    },
    {
      "inputs": [],
      "name": "EMERGENCY_NOTICE_PERIOD",
      "outputs": [
        {
          "internalType": "uint256",
          "name": "",
          "type": "uint256"
        }
      ],
      "stateMutability": "view",
      "type": "function"
    },
    {
      "inputs": [],
      "name": "EMERGENCY_SWEEP_GRACE_PERIOD",
      "outputs": [
        {
          "internalType": "uint256",
          "name": "",
          "type": "uint256"
        }
      ],
      "stateMutability": "view",
      "type": "function"
    },
    {
      "inputs": [],
      "name": "FEE_BPS",
      "outputs": [
        {
          "internalType": "uint16",
          "name": "",
          "type": "uint16"
        }
      ],
      "stateMutability": "view",
      "type": "function"
    },
    {
      "inputs": [],
      "name": "MAX_DEADLINE_WINDOW",
      "outputs": [
        {
          "internalType": "uint256",
          "name": "",
          "type": "uint256"
        }
      ],
      "stateMutability": "view",
      "type": "function"
    },
    {
      "inputs": [],
      "name": "PUBLISHER_GRACE_PERIOD",
      "outputs": [
        {
          "internalType": "uint256",
          "name": "",
          "type": "uint256"
        }
      ],
      "stateMutability": "view",
      "type": "function"
    },
    {
      "inputs": [
        {
          "internalType": "address",
          "name": "",
          "type": "address"
        }
      ],
      "name": "alreadyClaimed",
      "outputs": [
        {
          "internalType": "uint256",
          "name": "",
          "type": "uint256"
        }
      ],
      "stateMutability": "view",
      "type": "function"
    },
    {
      "inputs": [
        {
          "internalType": "address",
          "name": "",
          "type": "address"
        }
      ],
      "name": "alreadyFeePaid",
      "outputs": [
        {
          "internalType": "uint256",
          "name": "",
          "type": "uint256"
        }
      ],
      "stateMutability": "view",
      "type": "function"
    },
    {
      "inputs": [],
      "name": "eip712Domain",
      "outputs": [
        {
          "internalType": "bytes1",
          "name": "fields",
          "type": "bytes1"
        },
        {
          "internalType": "string",
          "name": "name",
          "type": "string"
        },
        {
          "internalType": "string",
          "name": "version",
          "type": "string"
        },
        {
          "internalType": "uint256",
          "name": "chainId",
          "type": "uint256"
        },
        {
          "internalType": "address",
          "name": "verifyingContract",
          "type": "address"
        },
        {
          "internalType": "bytes32",
          "name": "salt",
          "type": "bytes32"
        },
        {
          "internalType": "uint256[]",
          "name": "extensions",
          "type": "uint256[]"
        }
      ],
      "stateMutability": "view",
      "type": "function"
    },
    {
      "inputs": [],
      "name": "emergencyNoticeTimestamp",
      "outputs": [
        {
          "internalType": "uint256",
          "name": "",
          "type": "uint256"
        }
      ],
      "stateMutability": "view",
      "type": "function"
    },
    {
      "inputs": [
        {
          "internalType": "address",
          "name": "to",
          "type": "address"
        }
      ],
      "name": "emergencySweepAll",
      "outputs": [],
      "stateMutability": "nonpayable",
      "type": "function"
    },
    {
      "inputs": [],
      "name": "factory",
      "outputs": [
        {
          "internalType": "address",
          "name": "",
          "type": "address"
        }
      ],
      "stateMutability": "view",
      "type": "function"
    },
    {
      "inputs": [
        {
          "internalType": "uint256",
          "name": "amount",
          "type": "uint256"
        }
      ],
      "name": "fund",
      "outputs": [],
      "stateMutability": "nonpayable",
      "type": "function"
    },
    {
      "inputs": [
        {
          "internalType": "uint256",
          "name": "amount",
          "type": "uint256"
        },
        {
          "internalType": "uint256",
          "name": "deadline",
          "type": "uint256"
        },
        {
          "internalType": "uint8",
          "name": "v",
          "type": "uint8"
        },
        {
          "internalType": "bytes32",
          "name": "r",
          "type": "bytes32"
        },
        {
          "internalType": "bytes32",
          "name": "s",
          "type": "bytes32"
        }
      ],
      "name": "fundWithPermit",
      "outputs": [],
      "stateMutability": "nonpayable",
      "type": "function"
    },
    {
      "inputs": [],
      "name": "getFactory",
      "outputs": [
        {
          "internalType": "address",
          "name": "",
          "type": "address"
        }
      ],
      "stateMutability": "view",
      "type": "function"
    },
    {
      "inputs": [],
      "name": "globalAlreadyClaimed",
      "outputs": [
        {
          "internalType": "uint256",
          "name": "",
          "type": "uint256"
        }
      ],
      "stateMutability": "view",
      "type": "function"
    },
    {
      "inputs": [
        {
          "internalType": "address",
          "name": "_token",
          "type": "address"
        },
        {
          "internalType": "address",
          "name": "_creator",
          "type": "address"
        },
        {
          "internalType": "address",
          "name": "_platformTreasury",
          "type": "address"
        },
        {
          "internalType": "address",
          "name": "_factory",
          "type": "address"
        }
      ],
      "name": "initialize",
      "outputs": [],
      "stateMutability": "nonpayable",
      "type": "function"
    },
    {
      "inputs": [
        {
          "internalType": "address",
          "name": "to",
          "type": "address"
        },
        {
          "internalType": "string",
          "name": "justification",
          "type": "string"
        }
      ],
      "name": "initiateEmergencySweepNotice",
      "outputs": [],
      "stateMutability": "nonpayable",
      "type": "function"
    },
    {
      "inputs": [],
      "name": "lastClaimTimestamp",
      "outputs": [
        {
          "internalType": "uint256",
          "name": "",
          "type": "uint256"
        }
      ],
      "stateMutability": "view",
      "type": "function"
    },
    {
      "inputs": [],
      "name": "pause",
      "outputs": [],
      "stateMutability": "nonpayable",
      "type": "function"
    },
    {
      "inputs": [],
      "name": "paused",
      "outputs": [
        {
          "internalType": "bool",
          "name": "",
          "type": "bool"
        }
      ],
      "stateMutability": "view",
      "type": "function"
    },
    {
      "inputs": [
        {
          "internalType": "address",
          "name": "account",
          "type": "address"
        },
        {
          "internalType": "uint256",
          "name": "cumulativeAmount",
          "type": "uint256"
        },
        {
          "internalType": "uint256",
          "name": "deadline",
          "type": "uint256"
        },
        {
          "internalType": "bytes",
          "name": "signature",
          "type": "bytes"
        }
      ],
      "name": "payWithSig",
      "outputs": [
        {
          "internalType": "uint256",
          "name": "gross",
          "type": "uint256"
        },
        {
          "internalType": "uint256",
          "name": "fee",
          "type": "uint256"
        },
        {
          "internalType": "uint256",
          "name": "net",
          "type": "uint256"
        }
      ],
      "stateMutability": "nonpayable",
      "type": "function"
    },
    {
      "inputs": [],
      "name": "platformTreasury",
      "outputs": [
        {
          "internalType": "address",
          "name": "",
          "type": "address"
        }
      ],
      "stateMutability": "view",
      "type": "function"
    },
    {
      "inputs": [
        {
          "internalType": "bytes4",
          "name": "interfaceId",
          "type": "bytes4"
        }
      ],
      "name": "supportsInterface",
      "outputs": [
        {
          "internalType": "bool",
          "name": "",
          "type": "bool"
        }
      ],
      "stateMutability": "view",
      "type": "function"
    },
    {
      "inputs": [],
      "name": "token",
      "outputs": [
        {
          "internalType": "address",
          "name": "",
          "type": "address"
        }
      ],
      "stateMutability": "view",
      "type": "function"
    },
    {
      "inputs": [],
      "name": "unpause",
      "outputs": [],
      "stateMutability": "nonpayable",
      "type": "function"
    },
    {
      "inputs": [
        {
          "internalType": "address",
          "name": "newTreasury",
          "type": "address"
        }
      ],
      "name": "updatePlatformTreasury",
      "outputs": [],
      "stateMutability": "nonpayable",
      "type": "function"
    }
  ],
  "bytecode": "0x6080604052348015600f57600080fd5b506016601a565b60ca565b7ff0c57e16840df040f15088dc2f81fe391c3923bec73e23a9662efc9c229c6a00805468010000000000000000900460ff161560695760405163f92ee8a960e01b815260040160405180910390fd5b80546001600160401b039081161460c75780546001600160401b0319166001600160401b0390811782556040519081527fc7f505b2f371ae2175ee4913f4499e1f2633a7b5936321eed1cdaeb6115181d29060200160405180910390a15b50565b6125d1806100d96000396000f3fe608060405234801561001057600080fd5b50600436106101ae5760003560e01c806388cc58e4116100ee578063c45a015511610097578063e138818c11610071578063e138818c14610370578063f54b893b14610383578063f8c8765e146103a3578063fc0c546a146103b657600080fd5b8063c45a015514610337578063c8b4f1131461034a578063ca1d209d1461035d57600080fd5b8063ae333ec8116100c8578063ae333ec8146102fb578063bf333f2c1461031b578063c2b86d601461020957600080fd5b806388cc58e4146102b05780638d90fc39146102d5578063943d7cae146102e857600080fd5b8063499602291161015b57806368e735831161013557806368e73583146102845780638327032a146102095780638456cb591461028d57806384b0196e1461029557600080fd5b8063499602291461023e5780635c975abb14610251578063607af3971461027b57600080fd5b8063177971b51161018c578063177971b51461022157806317f7ab391461022a5780633f4ba83a1461023457600080fd5b806301ffc9a7146101b357806306fffdab146101db5780630dbc233014610209575b600080fd5b6101c66101c1366004611ffa565b6103c9565b60405190151581526020015b60405180910390f35b6101ee6101e9366004612089565b610400565b604080519384526020840192909252908201526060016101d2565b61021362093a8081565b6040519081526020016101d2565b61021360075481565b61021362ed4e0081565b61023c6108c7565b005b61023c61024c3660046120f3565b610994565b7fcd5ed15c6e187e77e9aee88184c21f4f2182ab5827cb3b7e07fbedcd63f033005460ff166101c6565b61021360065481565b61021360055481565b61023c610bce565b61029d610c99565b6040516101d2979695949392919061218e565b6002546001600160a01b03165b6040516001600160a01b0390911681526020016101d2565b61023c6102e3366004612226565b610d5f565b61023c6102f6366004612226565b610fde565b610213610309366004612226565b60046020526000908152604090205481565b6103246103e881565b60405161ffff90911681526020016101d2565b6002546102bd906001600160a01b031681565b61023c610358366004612243565b611142565b61023c61036b366004612292565b6112ec565b6001546102bd906001600160a01b031681565b610213610391366004612226565b60036020526000908152604090205481565b61023c6103b13660046122ab565b611331565b6000546102bd906001600160a01b031681565b60006001600160e01b03198216638e33a54f60e01b14806103fa57506301ffc9a760e01b6001600160e01b03198316145b92915050565b600080600061040d6115b3565b6104156115fd565b4286101561045657604051631edf3f5560e01b8152602060048201526008602482015267646561646c696e6560c01b60448201526064015b60405180910390fd5b61046362093a804261231d565b86111561049e576040516305519d6f60e51b8152602060048201526008602482015267646561646c696e6560c01b604482015260640161044d565b6001600160a01b03881660009081526003602052604090205487116104ee576040516308d7458b60e11b8152602060048201526005602482015264636c61696d60d81b604482015260640161044d565b604080517feb78cbac71fc5557c6ec4a437a3c633d4d94756b9709e640223df013cde224c260208201526001600160a01b038a1691810191909152606081018890526080810187905260009060a001604051602081830303815290604052805190602001209050600061056082611640565b905060006105a48289898080601f01602080910402602001604051908101604052809392919081815260200183838082843760009201919091525061166d92505050565b90506000806000600260009054906101000a90046001600160a01b03166001600160a01b031663f0c597c86040518163ffffffff1660e01b8152600401606060405180830381865afa1580156105fe573d6000803e3d6000fd5b505050506040513d601f19601f820116820180604052508101906106229190612330565b9250925092506000836001600160a01b0316856001600160a01b03161480610671575060008211801561065457508142105b80156106715750826001600160a01b0316856001600160a01b0316145b9050806106ad57604051631edf3f5560e01b81526020600482015260096024820152687369676e617475726560b81b604482015260640161044d565b5050506001600160a01b038c166000908152600360205260409020546106d491508b612374565b955060006127106106e76103e88d612387565b6106f1919061239e565b6001600160a01b038d166000908152600460205260409020549091506107179082612374565b95506107238688612374565b6000546040516370a0823160e01b815230600482015291965088916001600160a01b03909116906370a0823190602401602060405180830381865afa158015610770573d6000803e3d6000fd5b505050506040513d601f19601f8201168201806040525081019061079491906123c0565b10156107cd576040516305519d6f60e51b815260206004820152600760248201526662616c616e636560c81b604482015260640161044d565b6001600160a01b038c1660009081526003602090815260408083208e905560049091528120919091556005805488929061080890849061231d565b909155505042600655600054610828906001600160a01b03168c86611697565b841561084b5760015460005461084b916001600160a01b03918216911687611697565b6000546040518b81526001600160a01b03918216918d16907fcb30b67136e80eb5d1a446a0f6ba9296285c283a46308f2dd5ed35f884c7c05b9060200160405180910390a35050506108bc60017f9b779b17422d0df92223018b32b4d1fa46e071723d6817e2486d003becc55f0055565b955095509592505050565b600260009054906101000a90046001600160a01b03166001600160a01b031663d33219b46040518163ffffffff1660e01b8152600401602060405180830381865afa15801561091a573d6000803e3d6000fd5b505050506040513d601f19601f8201168201806040525081019061093e91906123d9565b6001600160a01b0316336001600160a01b03161461098a5760405163973d02cb60e01b815260206004820152600860248201526774696d656c6f636b60c01b604482015260640161044d565b610992611736565b565b600260009054906101000a90046001600160a01b03166001600160a01b031663d33219b46040518163ffffffff1660e01b8152600401602060405180830381865afa1580156109e7573d6000803e3d6000fd5b505050506040513d601f19601f82011682018060405250810190610a0b91906123d9565b6001600160a01b0316336001600160a01b031614610a575760405163973d02cb60e01b815260206004820152600860248201526774696d656c6f636b60c01b604482015260640161044d565b7fcd5ed15c6e187e77e9aee88184c21f4f2182ab5827cb3b7e07fbedcd63f033005460ff16610ac957604051631edf3f5560e01b815260206004820152600e60248201527f70617573655f7265717569726564000000000000000000000000000000000000604482015260640161044d565b6001600160a01b038316610b0c576040516305519d6f60e51b81526020600482015260096024820152681c9958da5c1a595b9d60ba1b604482015260640161044d565b62ed4e00600654610b1d919061231d565b421015610b6d57604051631edf3f5560e01b815260206004820152600c60248201527f67726163655f706572696f640000000000000000000000000000000000000000604482015260640161044d565b42600781905550826001600160a01b03167f0a9e105fe5da56b19c882d75827d391370183279462d6145651f7d6dca418967838362093a80600754610bb2919061231d565b604051610bc1939291906123f6565b60405180910390a2505050565b600260009054906101000a90046001600160a01b03166001600160a01b031663452a93206040518163ffffffff1660e01b8152600401602060405180830381865afa158015610c21573d6000803e3d6000fd5b505050506040513d601f19601f82011682018060405250810190610c4591906123d9565b6001600160a01b0316336001600160a01b031614610c915760405163973d02cb60e01b815260206004820152600860248201526733bab0b93234b0b760c11b604482015260640161044d565b6109926117a8565b600060608082808083817fa16a46d94261c7517cc8ff89f61c0ce93598e3c849801011dee649a6a557d1008054909150158015610cd857506001810154155b610d245760405162461bcd60e51b815260206004820152601560248201527f4549503731323a20556e696e697469616c697a65640000000000000000000000604482015260640161044d565b610d2c611803565b610d346118d8565b60408051600080825260208201909252600f60f81b9c939b5091995046985030975095509350915050565b600260009054906101000a90046001600160a01b03166001600160a01b031663d33219b46040518163ffffffff1660e01b8152600401602060405180830381865afa158015610db2573d6000803e3d6000fd5b505050506040513d601f19601f82011682018060405250810190610dd691906123d9565b6001600160a01b0316336001600160a01b031614610e225760405163973d02cb60e01b815260206004820152600860248201526774696d656c6f636b60c01b604482015260640161044d565b600754600003610e75576040516305519d6f60e51b815260206004820152600f60248201527f6e6f746963655f72657175697265640000000000000000000000000000000000604482015260640161044d565b62093a80600754610e86919061231d565b421015610ed6576040516305519d6f60e51b815260206004820152600d60248201527f6e6f746963655f706572696f6400000000000000000000000000000000000000604482015260640161044d565b600080546040516370a0823160e01b81523060048201526001600160a01b03909116906370a0823190602401602060405180830381865afa158015610f1f573d6000803e3d6000fd5b505050506040513d601f19601f82011682018060405250810190610f4391906123c0565b905080600003610f80576040516305519d6f60e51b815260206004820152600760248201526662616c616e636560c81b604482015260640161044d565b600054610f97906001600160a01b03168383611697565b60006007556040518181526001600160a01b038316907f1d31c87abea8d74946d05511e408fca752920c5018b5da81ac5df48a692137f79060200160405180910390a25050565b600260009054906101000a90046001600160a01b03166001600160a01b031663d33219b46040518163ffffffff1660e01b8152600401602060405180830381865afa158015611031573d6000803e3d6000fd5b505050506040513d601f19601f8201168201806040525081019061105591906123d9565b6001600160a01b0316336001600160a01b0316146110a15760405163973d02cb60e01b815260206004820152600860248201526774696d656c6f636b60c01b604482015260640161044d565b6001600160a01b0381166110e3576040516305519d6f60e51b8152602060048201526008602482015267747265617375727960c01b604482015260640161044d565b600180546001600160a01b0383811673ffffffffffffffffffffffffffffffffffffffff19831681179093556040519116919082907ff3814cc4b6220f5bf02409e4cebe75e5032fdb20cef0db459431fd5cba574b9390600090a35050565b61114a6115b3565b6111526115fd565b60005460405163d505accf60e01b8152336004820152306024820152604481018790526064810186905260ff8516608482015260a4810184905260c481018390526001600160a01b039091169063d505accf9060e401600060405180830381600087803b1580156111c257600080fd5b505af19250505080156111d3575060015b61120957604051631edf3f5560e01b81526020600482015260066024820152651c195c9b5a5d60d21b604482015260640161044d565b600054604051636eb1769f60e11b815233600482015230602482015286916001600160a01b03169063dd62ed3e90604401602060405180830381865afa158015611257573d6000803e3d6000fd5b505050506040513d601f19601f8201168201806040525081019061127b91906123c0565b10156112b357604051631edf3f5560e01b81526020600482015260066024820152651c195c9b5a5d60d21b604482015260640161044d565b6112bc85611929565b6112e560017f9b779b17422d0df92223018b32b4d1fa46e071723d6817e2486d003becc55f0055565b5050505050565b6112f46115b3565b6112fc6115fd565b61130581611929565b61132e60017f9b779b17422d0df92223018b32b4d1fa46e071723d6817e2486d003becc55f0055565b50565b600061133b611ac8565b805490915060ff68010000000000000000820416159067ffffffffffffffff166000811580156113685750825b905060008267ffffffffffffffff1660011480156113855750303b155b905081158015611393575080155b156113b15760405163f92ee8a960e01b815260040160405180910390fd5b845467ffffffffffffffff1916600117855583156113e557845468ff00000000000000001916680100000000000000001785555b6001600160a01b038916611424576040516305519d6f60e51b81526020600482015260056024820152643a37b5b2b760d91b604482015260640161044d565b6001600160a01b038716611466576040516305519d6f60e51b8152602060048201526008602482015267747265617375727960c01b604482015260640161044d565b6001600160a01b0386166114a7576040516305519d6f60e51b8152602060048201526007602482015266666163746f727960c81b604482015260640161044d565b6114af611af1565b6114b7611af9565b61150f6040518060400160405280600c81526020017f466163746f72795661756c740000000000000000000000000000000000000000815250604051806040016040528060018152602001603160f81b815250611b09565b600080546001600160a01b03808c1673ffffffffffffffffffffffffffffffffffffffff1992831617909255600180548a841690831617905560028054928916929091169190911790554260065583156115a857845468ff000000000000000019168555604051600181527fc7f505b2f371ae2175ee4913f4499e1f2633a7b5936321eed1cdaeb6115181d29060200160405180910390a15b505050505050505050565b7f9b779b17422d0df92223018b32b4d1fa46e071723d6817e2486d003becc55f008054600119016115f757604051633ee5aeb560e01b815260040160405180910390fd5b60029055565b7fcd5ed15c6e187e77e9aee88184c21f4f2182ab5827cb3b7e07fbedcd63f033005460ff16156109925760405163d93c066560e01b815260040160405180910390fd5b60006103fa61164d611b1f565b8360405161190160f01b8152600281019290925260228201526042902090565b60008060008061167d8686611b2e565b92509250925061168d8282611b7b565b5090949350505050565b6040516001600160a01b0383811660248301526044820183905261170b91859182169063a9059cbb906064015b604051602081830303815290604052915060e01b6020820180517bffffffffffffffffffffffffffffffffffffffffffffffffffffffff8381831617835250505050611c34565b505050565b60017f9b779b17422d0df92223018b32b4d1fa46e071723d6817e2486d003becc55f0055565b61173e611cab565b7fcd5ed15c6e187e77e9aee88184c21f4f2182ab5827cb3b7e07fbedcd63f03300805460ff191681557f5db9ee0a495bf2e6ff9c91a7834c1ba4fdd244a5e8aa4e537bd38aeae4b073aa335b6040516001600160a01b03909116815260200160405180910390a150565b6117b06115fd565b7fcd5ed15c6e187e77e9aee88184c21f4f2182ab5827cb3b7e07fbedcd63f03300805460ff191660011781557f62e78cea01bee320cd4e420270b5ea74000d11b0c9f74754ebdbfc544b05a2583361178a565b7fa16a46d94261c7517cc8ff89f61c0ce93598e3c849801011dee649a6a557d10280546060917fa16a46d94261c7517cc8ff89f61c0ce93598e3c849801011dee649a6a557d1009161185490612445565b80601f016020809104026020016040519081016040528092919081815260200182805461188090612445565b80156118cd5780601f106118a2576101008083540402835291602001916118cd565b820191906000526020600020905b8154815290600101906020018083116118b057829003601f168201915b505050505091505090565b7fa16a46d94261c7517cc8ff89f61c0ce93598e3c849801011dee649a6a557d10380546060917fa16a46d94261c7517cc8ff89f61c0ce93598e3c849801011dee649a6a557d1009161185490612445565b600080546040516370a0823160e01b81523060048201526001600160a01b03909116906370a0823190602401602060405180830381865afa158015611972573d6000803e3d6000fd5b505050506040513d601f19601f8201168201806040525081019061199691906123c0565b6000549091506119b1906001600160a01b0316333085611ced565b600080546040516370a0823160e01b81523060048201526001600160a01b03909116906370a0823190602401602060405180830381865afa1580156119fa573d6000803e3d6000fd5b505050506040513d601f19601f82011682018060405250810190611a1e91906123c0565b90506000611a2c8383612374565b9050838114611a7e57604051631edf3f5560e01b815260206004820152600e60248201527f746f6b656e5f7472616e73666572000000000000000000000000000000000000604482015260640161044d565b6000546040518581526001600160a01b039091169033907f3b5083eec1a1116c56de5d6841cff8efc6a0aec9850e836ec509d6ce024ea5619060200160405180910390a350505050565b6000807ff0c57e16840df040f15088dc2f81fe391c3923bec73e23a9662efc9c229c6a006103fa565b610992611d26565b611b01611d26565b610992611d4b565b611b11611d26565b611b1b8282611d53565b5050565b6000611b29611dc6565b905090565b60008060008351604103611b685760208401516040850151606086015160001a611b5a88828585611e3a565b955095509550505050611b74565b50508151600091506002905b9250925092565b6000826003811115611b8f57611b8f61247f565b03611b98575050565b6001826003811115611bac57611bac61247f565b03611bca5760405163f645eedf60e01b815260040160405180910390fd5b6002826003811115611bde57611bde61247f565b03611bff5760405163fce698f760e01b81526004810182905260240161044d565b6003826003811115611c1357611c1361247f565b03611b1b576040516335e2f38360e21b81526004810182905260240161044d565b600080602060008451602086016000885af180611c57576040513d6000823e3d81fd5b50506000513d91508115611c6f578060011415611c7c565b6001600160a01b0384163b155b15611ca557604051635274afe760e01b81526001600160a01b038516600482015260240161044d565b50505050565b7fcd5ed15c6e187e77e9aee88184c21f4f2182ab5827cb3b7e07fbedcd63f033005460ff1661099257604051638dfc202b60e01b815260040160405180910390fd5b6040516001600160a01b038481166024830152838116604483015260648201839052611ca59186918216906323b872dd906084016116c4565b611d2e611f09565b61099257604051631afcd79f60e31b815260040160405180910390fd5b611710611d26565b611d5b611d26565b7fa16a46d94261c7517cc8ff89f61c0ce93598e3c849801011dee649a6a557d1007fa16a46d94261c7517cc8ff89f61c0ce93598e3c849801011dee649a6a557d102611da784826124dc565b5060038101611db683826124dc565b5060008082556001909101555050565b60007f8b73c3c69bb8fe3d512ecc4cf759cc79239f7b179b0ffacaa9a75d522b39400f611df1611f28565b611df9611fa4565b60408051602081019490945283019190915260608201524660808201523060a082015260c00160405160208183030381529060405280519060200120905090565b600080807f7fffffffffffffffffffffffffffffff5d576e7357a4501ddfe92f46681b20a0841115611e755750600091506003905082611eff565b604080516000808252602082018084528a905260ff891692820192909252606081018790526080810186905260019060a0016020604051602081039080840390855afa158015611ec9573d6000803e3d6000fd5b5050604051601f1901519150506001600160a01b038116611ef557506000925060019150829050611eff565b9250600091508190505b9450945094915050565b6000611f13611ac8565b5468010000000000000000900460ff16919050565b60007fa16a46d94261c7517cc8ff89f61c0ce93598e3c849801011dee649a6a557d10081611f54611803565b805190915015611f6c57805160209091012092915050565b81548015611f7b579392505050565b7fc5d2460186f7233c927e7db2dcc703c0e500b653ca82273b7bfad8045d85a470935050505090565b60007fa16a46d94261c7517cc8ff89f61c0ce93598e3c849801011dee649a6a557d10081611fd06118d8565b805190915015611fe857805160209091012092915050565b60018201548015611f7b579392505050565b60006020828403121561200c57600080fd5b81356001600160e01b03198116811461202457600080fd5b9392505050565b6001600160a01b038116811461132e57600080fd5b60008083601f84011261205257600080fd5b50813567ffffffffffffffff81111561206a57600080fd5b60208301915083602082850101111561208257600080fd5b9250929050565b6000806000806000608086880312156120a157600080fd5b85356120ac8161202b565b94506020860135935060408601359250606086013567ffffffffffffffff8111156120d657600080fd5b6120e288828901612040565b969995985093965092949392505050565b60008060006040848603121561210857600080fd5b83356121138161202b565b9250602084013567ffffffffffffffff81111561212f57600080fd5b61213b86828701612040565b9497909650939450505050565b6000815180845260005b8181101561216e57602081850181015186830182015201612152565b506000602082860101526020601f19601f83011685010191505092915050565b60ff60f81b8816815260e0602082015260006121ad60e0830189612148565b82810360408401526121bf8189612148565b606084018890526001600160a01b038716608085015260a0840186905283810360c08501528451808252602080870193509091019060005b818110156122155783518352602093840193909201916001016121f7565b50909b9a5050505050505050505050565b60006020828403121561223857600080fd5b81356120248161202b565b600080600080600060a0868803121561225b57600080fd5b8535945060208601359350604086013560ff8116811461227a57600080fd5b94979396509394606081013594506080013592915050565b6000602082840312156122a457600080fd5b5035919050565b600080600080608085870312156122c157600080fd5b84356122cc8161202b565b935060208501356122dc8161202b565b925060408501356122ec8161202b565b915060608501356122fc8161202b565b939692955090935050565b634e487b7160e01b600052601160045260246000fd5b808201808211156103fa576103fa612307565b60008060006060848603121561234557600080fd5b83516123508161202b565b60208501519093506123618161202b565b6040949094015192959394509192915050565b818103818111156103fa576103fa612307565b80820281158282048414176103fa576103fa612307565b6000826123bb57634e487b7160e01b600052601260045260246000fd5b500490565b6000602082840312156123d257600080fd5b5051919050565b6000602082840312156123eb57600080fd5b81516120248161202b565b604081528260408201528284606083013760006060848301015260006060601f19601f8601168301019050826020830152949350505050565b634e487b7160e01b600052604160045260246000fd5b600181811c9082168061245957607f821691505b60208210810361247957634e487b7160e01b600052602260045260246000fd5b50919050565b634e487b7160e01b600052602160045260246000fd5b601f82111561170b57806000526020600020601f840160051c810160208510156124bc5750805b601f840160051c820191505b818110156112e557600081556001016124c8565b815167ffffffffffffffff8111156124f6576124f661242f565b61250a816125048454612445565b84612495565b6020601f82116001811461253e57600083156125265750848201515b600019600385901b1c1916600184901b1784556112e5565b600084815260208120601f198516915b8281101561256e578785015182556020948501946001909201910161254e565b508482101561258c5786840151600019600387901b60f8161c191681555b50505050600190811b0190555056fea26469706673582212208c6337834c5ddb06f123f5b4512f62556f081b2c0fdbef9a6531d7635db2eebc64736f6c634300081e0033",
  "linkReferences": {},
  "deployedLinkReferences": {}
}