{
  "_format": "hh-sol-artifact-1",
  "contractName": "RewardPoolFactory",
  "sourceName": "contracts/RewardPoolFactory.sol",
  "abi": [
    {
      "inputs": [
        {
          "internalType": "address",
          "name": "_poolImplementation",
          "type": "address"
        },
        {
          "internalType": "address",
          "name": "_platformTreasury",
          "type": "address"
        },
        {
          "internalType": "address",
          "name": "_timelock",
          "type": "address"
        },
        {
          "internalType": "address",
          "name": "_guardian",
          "type": "address"
        },
        {
          "internalType": "address",
          "name": "_publisher",
          "type": "address"
        }
      ],
      "stateMutability": "nonpayable",
      "type": "constructor"
    },
    {
      "inputs": [],
      "name": "AccessControlBadConfirmation",
      "type": "error"
    },
    {
      "inputs": [
        {
          "internalType": "address",
          "name": "account",
          "type": "address"
        },
        {
          "internalType": "bytes32",
          "name": "neededRole",
          "type": "bytes32"
        }
      ],
      "name": "AccessControlUnauthorizedAccount",
      "type": "error"
    },
    {
      "inputs": [
        {
          "internalType": "string",
          "name": "resource",
          "type": "string"
        }
      ],
      "name": "AlreadyExists",
      "type": "error"
    },
    {
      "inputs": [],
      "name": "EnforcedPause",
      "type": "error"
    },
    {
      "inputs": [],
      "name": "ExpectedPause",
      "type": "error"
    },
    {
      "inputs": [],
      "name": "FailedDeployment",
      "type": "error"
    },
    {
      "inputs": [
        {
          "internalType": "uint256",
          "name": "balance",
          "type": "uint256"
        },
        {
          "internalType": "uint256",
          "name": "needed",
          "type": "uint256"
        }
      ],
      "name": "InsufficientBalance",
      "type": "error"
    },
    {
      "inputs": [
        {
          "internalType": "string",
          "name": "param",
          "type": "string"
        }
      ],
      "name": "InvalidParameter",
      "type": "error"
    },
    {
      "inputs": [],
      "name": "ReentrancyGuardReentrantCall",
      "type": "error"
    },
    {
      "inputs": [
        {
          "internalType": "string",
          "name": "check",
          "type": "string"
        }
      ],
      "name": "SecurityViolation",
      "type": "error"
    },
    {
      "inputs": [
        {
          "internalType": "string",
          "name": "role",
          "type": "string"
        }
      ],
      "name": "Unauthorized",
      "type": "error"
    },
    {
      "anonymous": false,
      "inputs": [
        {
          "indexed": false,
          "internalType": "address",
          "name": "account",
          "type": "address"
        }
      ],
      "name": "Paused",
      "type": "event"
    },
    {
      "anonymous": false,
      "inputs": [
        {
          "indexed": true,
          "internalType": "address",
          "name": "creator",
          "type": "address"
        },
        {
          "indexed": true,
          "internalType": "address",
          "name": "pool",
          "type": "address"
        },
        {
          "indexed": true,
          "internalType": "address",
          "name": "token",
          "type": "address"
        },
        {
          "indexed": false,
          "internalType": "bytes32",
          "name": "salt",
          "type": "bytes32"
        }
      ],
      "name": "PoolCreated",
      "type": "event"
    },
    {
      "anonymous": false,
      "inputs": [
        {
          "indexed": true,
          "internalType": "address",
          "name": "restoredPublisher",
          "type": "address"
        },
        {
          "indexed": true,
          "internalType": "address",
          "name": "cancelledPublisher",
          "type": "address"
        }
      ],
      "name": "PublisherRotationCancelled",
      "type": "event"
    },
    {
      "anonymous": false,
      "inputs": [
        {
          "indexed": true,
          "internalType": "address",
          "name": "oldPublisher",
          "type": "address"
        },
        {
          "indexed": true,
          "internalType": "address",
          "name": "newPublisher",
          "type": "address"
        },
        {
          "indexed": false,
          "internalType": "uint256",
          "name": "graceEndTime",
          "type": "uint256"
        }
      ],
      "name": "PublisherRotationInitiated",
      "type": "event"
    },
    {
      "anonymous": false,
      "inputs": [
        {
          "indexed": true,
          "internalType": "bytes32",
          "name": "role",
          "type": "bytes32"
        },
        {
          "indexed": true,
          "internalType": "bytes32",
          "name": "previousAdminRole",
          "type": "bytes32"
        },
        {
          "indexed": true,
          "internalType": "bytes32",
          "name": "newAdminRole",
          "type": "bytes32"
        }
      ],
      "name": "RoleAdminChanged",
      "type": "event"
    },
    {
      "anonymous": false,
      "inputs": [
        {
          "indexed": true,
          "internalType": "bytes32",
          "name": "role",
          "type": "bytes32"
        },
        {
          "indexed": true,
          "internalType": "address",
          "name": "account",
          "type": "address"
        },
        {
          "indexed": true,
          "internalType": "address",
          "name": "sender",
          "type": "address"
        }
      ],
      "name": "RoleGranted",
      "type": "event"
    },
    {
      "anonymous": false,
      "inputs": [
        {
          "indexed": true,
          "internalType": "bytes32",
          "name": "role",
          "type": "bytes32"
        },
        {
          "indexed": true,
          "internalType": "address",
          "name": "account",
          "type": "address"
        },
        {
          "indexed": true,
          "internalType": "address",
          "name": "sender",
          "type": "address"
        }
      ],
      "name": "RoleRevoked",
      "type": "event"
    },
    {
      "anonymous": false,
      "inputs": [
        {
          "indexed": true,
          "internalType": "address",
          "name": "token",
          "type": "address"
        },
        {
          "indexed": false,
          "internalType": "bool",
          "name": "allowed",
          "type": "bool"
        }
      ],
      "name": "TokenAllowedUpdated",
      "type": "event"
    },
    {
      "anonymous": false,
      "inputs": [
        {
          "indexed": false,
          "internalType": "address",
          "name": "account",
          "type": "address"
        }
      ],
      "name": "Unpaused",
      "type": "event"
    },
    {
      "inputs": [],
      "name": "DEFAULT_ADMIN_ROLE",
      "outputs": [
        {
          "internalType": "bytes32",
          "name": "",
          "type": "bytes32"
        }
      ],
      "stateMutability": "view",
      "type": "function"
    },
    {
      "inputs": [],
      "name": "EMERGENCY_ROLE",
      "outputs": [
        {
          "internalType": "bytes32",
          "name": "",
          "type": "bytes32"
        }
      ],
      "stateMutability": "view",
      "type": "function"
    },
    {
      "inputs": [],
      "name": "PUBLISHER_GRACE_PERIOD",
      "outputs": [
        {
          "internalType": "uint256",
          "name": "",
          "type": "uint256"
        }
      ],
      "stateMutability": "view",
      "type": "function"
    },
    {
      "inputs": [],
      "name": "TIMELOCK_ROLE",
      "outputs": [
        {
          "internalType": "bytes32",
          "name": "",
          "type": "bytes32"
        }
      ],
      "stateMutability": "view",
      "type": "function"
    },
    {
      "inputs": [
        {
          "internalType": "address",
          "name": "",
          "type": "address"
        }
      ],
      "name": "allowedTokens",
      "outputs": [
        {
          "internalType": "bool",
          "name": "",
          "type": "bool"
        }
      ],
      "stateMutability": "view",
      "type": "function"
    },
    {
      "inputs": [],
      "name": "cancelPublisherRotation",
      "outputs": [],
      "stateMutability": "nonpayable",
      "type": "function"
    },
    {
      "inputs": [
        {
          "internalType": "address",
          "name": "token",
          "type": "address"
        }
      ],
      "name": "createPool",
      "outputs": [
        {
          "internalType": "address",
          "name": "pool",
          "type": "address"
        }
      ],
      "stateMutability": "nonpayable",
      "type": "function"
    },
    {
      "inputs": [],
      "name": "getGuardianInfo",
      "outputs": [
        {
          "internalType": "address",
          "name": "",
          "type": "address"
        }
      ],
      "stateMutability": "view",
      "type": "function"
    },
    {
      "inputs": [],
      "name": "getPublisherInfo",
      "outputs": [
        {
          "internalType": "address",
          "name": "current",
          "type": "address"
        },
        {
          "internalType": "address",
          "name": "old",
          "type": "address"
        },
        {
          "internalType": "uint256",
          "name": "graceEnd",
          "type": "uint256"
        }
      ],
      "stateMutability": "view",
      "type": "function"
    },
    {
      "inputs": [
        {
          "internalType": "bytes32",
          "name": "role",
          "type": "bytes32"
        }
      ],
      "name": "getRoleAdmin",
      "outputs": [
        {
          "internalType": "bytes32",
          "name": "",
          "type": "bytes32"
        }
      ],
      "stateMutability": "view",
      "type": "function"
    },
    {
      "inputs": [],
      "name": "graceEndTime",
      "outputs": [
        {
          "internalType": "uint256",
          "name": "",
          "type": "uint256"
        }
      ],
      "stateMutability": "view",
      "type": "function"
    },
    {
      "inputs": [
        {
          "internalType": "bytes32",
          "name": "role",
          "type": "bytes32"
        },
        {
          "internalType": "address",
          "name": "account",
          "type": "address"
        }
      ],
      "name": "grantRole",
      "outputs": [],
      "stateMutability": "nonpayable",
      "type": "function"
    },
    {
      "inputs": [],
      "name": "guardian",
      "outputs": [
        {
          "internalType": "address",
          "name": "",
          "type": "address"
        }
      ],
      "stateMutability": "view",
      "type": "function"
    },
    {
      "inputs": [
        {
          "internalType": "bytes32",
          "name": "role",
          "type": "bytes32"
        },
        {
          "internalType": "address",
          "name": "account",
          "type": "address"
        }
      ],
      "name": "hasRole",
      "outputs": [
        {
          "internalType": "bool",
          "name": "",
          "type": "bool"
        }
      ],
      "stateMutability": "view",
      "type": "function"
    },
    {
      "inputs": [
        {
          "internalType": "address",
          "name": "newPublisher",
          "type": "address"
        }
      ],
      "name": "initiatePublisherRotation",
      "outputs": [],
      "stateMutability": "nonpayable",
      "type": "function"
    },
    {
      "inputs": [],
      "name": "oldPublisher",
      "outputs": [
        {
          "internalType": "address",
          "name": "",
          "type": "address"
        }
      ],
      "stateMutability": "view",
      "type": "function"
    },
    {
      "inputs": [],
      "name": "pause",
      "outputs": [],
      "stateMutability": "nonpayable",
      "type": "function"
    },
    {
      "inputs": [],
      "name": "paused",
      "outputs": [
        {
          "internalType": "bool",
          "name": "",
          "type": "bool"
        }
      ],
      "stateMutability": "view",
      "type": "function"
    },
    {
      "inputs": [],
      "name": "platformTreasury",
      "outputs": [
        {
          "internalType": "address",
          "name": "",
          "type": "address"
        }
      ],
      "stateMutability": "view",
      "type": "function"
    },
    {
      "inputs": [
        {
          "internalType": "address",
          "name": "",
          "type": "address"
        },
        {
          "internalType": "address",
          "name": "",
          "type": "address"
        }
      ],
      "name": "poolExists",
      "outputs": [
        {
          "internalType": "bool",
          "name": "",
          "type": "bool"
        }
      ],
      "stateMutability": "view",
      "type": "function"
    },
    {
      "inputs": [],
      "name": "poolImplementation",
      "outputs": [
        {
          "internalType": "address",
          "name": "",
          "type": "address"
        }
      ],
      "stateMutability": "view",
      "type": "function"
    },
    {
      "inputs": [
        {
          "internalType": "address",
          "name": "creator",
          "type": "address"
        },
        {
          "internalType": "address",
          "name": "token",
          "type": "address"
        }
      ],
      "name": "predictPoolAddress",
      "outputs": [
        {
          "internalType": "address",
          "name": "predicted",
          "type": "address"
        },
        {
          "internalType": "bytes32",
          "name": "salt",
          "type": "bytes32"
        }
      ],
      "stateMutability": "view",
      "type": "function"
    },
    {
      "inputs": [],
      "name": "publisher",
      "outputs": [
        {
          "internalType": "address",
          "name": "",
          "type": "address"
        }
      ],
      "stateMutability": "view",
      "type": "function"
    },
    {
      "inputs": [
        {
          "internalType": "bytes32",
          "name": "role",
          "type": "bytes32"
        },
        {
          "internalType": "address",
          "name": "callerConfirmation",
          "type": "address"
        }
      ],
      "name": "renounceRole",
      "outputs": [],
      "stateMutability": "nonpayable",
      "type": "function"
    },
    {
      "inputs": [
        {
          "internalType": "bytes32",
          "name": "role",
          "type": "bytes32"
        },
        {
          "internalType": "address",
          "name": "account",
          "type": "address"
        }
      ],
      "name": "revokeRole",
      "outputs": [],
      "stateMutability": "nonpayable",
      "type": "function"
    },
    {
      "inputs": [
        {
          "internalType": "address",
          "name": "token",
          "type": "address"
        },
        {
          "internalType": "bool",
          "name": "allowed",
          "type": "bool"
        }
      ],
      "name": "setTokenAllowed",
      "outputs": [],
      "stateMutability": "nonpayable",
      "type": "function"
    },
    {
      "inputs": [
        {
          "internalType": "bytes4",
          "name": "interfaceId",
          "type": "bytes4"
        }
      ],
      "name": "supportsInterface",
      "outputs": [
        {
          "internalType": "bool",
          "name": "",
          "type": "bool"
        }
      ],
      "stateMutability": "view",
      "type": "function"
    },
    {
      "inputs": [],
      "name": "timelock",
      "outputs": [
        {
          "internalType": "address",
          "name": "",
          "type": "address"
        }
      ],
      "stateMutability": "view",
      "type": "function"
    },
    {
      "inputs": [],
      "name": "unpause",
      "outputs": [],
      "stateMutability": "nonpayable",
      "type": "function"
    }
  ],
  "bytecode": "0x61010060405234801561001157600080fd5b50604051611735380380611735833981016040819052610030916102f6565b60016002556001600160a01b038516610082576040516305519d6f60e51b815260206004820152600e60248201526d34b6b83632b6b2b73a30ba34b7b760911b60448201526064015b60405180910390fd5b6001600160a01b0384166100c4576040516305519d6f60e51b8152602060048201526008602482015267747265617375727960c01b6044820152606401610079565b6001600160a01b038316610106576040516305519d6f60e51b815260206004820152600860248201526774696d656c6f636b60c01b6044820152606401610079565b6001600160a01b038216610148576040516305519d6f60e51b815260206004820152600860248201526733bab0b93234b0b760c11b6044820152606401610079565b6001600160a01b03811661018b576040516305519d6f60e51b8152602060048201526009602482015268383ab13634b9b432b960b91b6044820152606401610079565b6001600160a01b0385811660805284811660a05283811660c05282811660e052600380546001600160a01b0319169183169190911790556101cd60008461022e565b506101f87ff66846415d2bf9eabda9e84793ff9c0ea96d87f50fc41e66aa16469c6a442f058461022e565b506102237fbf233dd2aafeb4d50879c4aa5c81e96d92f6e6945c906a58f9f2d1c1631b4b268361022e565b50505050505061035b565b6000828152602081815260408083206001600160a01b038516845290915281205460ff166102d0576000838152602081815260408083206001600160a01b03861684529091529020805460ff191660011790556102883390565b6001600160a01b0316826001600160a01b0316847f2f8788117e7eff1d82e926ec794901d17c78024a50270940304540a733656f0d60405160405180910390a45060016102d4565b5060005b92915050565b80516001600160a01b03811681146102f157600080fd5b919050565b600080600080600060a0868803121561030e57600080fd5b610317866102da565b9450610325602087016102da565b9350610333604087016102da565b9250610341606087016102da565b915061034f608087016102da565b90509295509295909350565b60805160a05160c05160e0516113626103d3600039600081816103900152818161057c015261095d0152600081816104cc015281816106090152818161073b015281816108ef0152610cc10152600081816105060152610be4015260008181610304015281816104a50152610ab601526113626000f3fe608060405234801561001057600080fd5b50600436106101cf5760003560e01c80638456cb5911610104578063cefa7799116100a2578063e744092e11610071578063e744092e14610528578063f0c597c81461054b578063f21b0d821461057a578063f288a2e2146105a057600080fd5b8063cefa7799146104a0578063d33219b4146104c7578063d547741f146104ee578063e138818c1461050157600080fd5b80639049f9d2116100de5780639049f9d21461043b57806391d148541461044e578063a217fddf14610485578063b51bbf581461048d57600080fd5b80638456cb591461040d578063882c2792146104155780638c72c54e1461042857600080fd5b806336568abe11610171578063452a93201161014b578063452a93201461038b578063552e4e84146103ca5780635c975abb146103f85780638327032a1461040357600080fd5b806336568abe1461028d5780633dd680e6146102a05780633f4ba83a1461038357600080fd5b806320df4359116101ad57806320df435914610228578063248a9ca31461024f5780632f2ff15d1461027257806335ffdcad1461028557600080fd5b806301ffc9a7146101d457806315f69012146101fc5780631b3c1a7814610211575b600080fd5b6101e76101e23660046111d7565b6105c7565b60405190151581526020015b60405180910390f35b61020f61020a366004611216565b6105fe565b005b61021a60055481565b6040519081526020016101f3565b61021a7fbf233dd2aafeb4d50879c4aa5c81e96d92f6e6945c906a58f9f2d1c1631b4b2681565b61021a61025d366004611254565b60009081526020819052604090206001015490565b61020f61028036600461126d565b610705565b61020f610730565b61020f61029b36600461126d565b6108ac565b6103646102ae366004611292565b604080516001600160a01b0393841660208083019190915292841681830152815180820383018152606082019283905280519301929092203060988401526f5af43d82803e903d91602b57fd5bf3ff60848401527f00000000000000000000000000000000000000000000000000000000000000006074840152733d602d80600a3d3981f3363d3d373d3d3d363d7390915260b882018190526037606c83012060d8830152605560a39092019190912090911691565b604080516001600160a01b0390931683526020830191909152016101f3565b61020f6108e4565b6103b27f000000000000000000000000000000000000000000000000000000000000000081565b6040516001600160a01b0390911681526020016101f3565b6101e76103d8366004611292565b600760209081526000928352604080842090915290825290205460ff1681565b60015460ff166101e7565b61021a62093a8081565b61020f610952565b6004546103b2906001600160a01b031681565b6003546103b2906001600160a01b031681565b6103b26104493660046112c0565b6109be565b6101e761045c36600461126d565b6000918252602082815260408084206001600160a01b0393909316845291905290205460ff1690565b61021a600081565b61020f61049b3660046112c0565b610cb6565b6103b27f000000000000000000000000000000000000000000000000000000000000000081565b6103b27f000000000000000000000000000000000000000000000000000000000000000081565b61020f6104fc36600461126d565b610e79565b6103b27f000000000000000000000000000000000000000000000000000000000000000081565b6101e76105363660046112c0565b60066020526000908152604090205460ff1681565b600354600454600554604080516001600160a01b039485168152939092166020840152908201526060016101f3565b7f00000000000000000000000000000000000000000000000000000000000000006103b2565b61021a7ff66846415d2bf9eabda9e84793ff9c0ea96d87f50fc41e66aa16469c6a442f0581565b60006001600160e01b03198216637965db0b60e01b14806105f857506301ffc9a760e01b6001600160e01b03198316145b92915050565b336001600160a01b037f000000000000000000000000000000000000000000000000000000000000000016146106675760405163973d02cb60e01b815260206004820152600860248201526774696d656c6f636b60c01b60448201526064015b60405180910390fd5b6001600160a01b0382166106a6576040516305519d6f60e51b81526020600482015260056024820152643a37b5b2b760d91b604482015260640161065e565b6001600160a01b038216600081815260066020908152604091829020805460ff191685151590811790915591519182527ff79af2c7ac0c0ca46b120471b86e9c5a58e85f9089f9d53300648eb457ca6aa7910160405180910390a25050565b60008281526020819052604090206001015461072081610e9e565b61072a8383610eab565b50505050565b336001600160a01b037f000000000000000000000000000000000000000000000000000000000000000016146107945760405163973d02cb60e01b815260206004820152600860248201526774696d656c6f636b60c01b604482015260640161065e565b6005546000036107e7576040516305519d6f60e51b815260206004820152600b60248201527f6e6f5f726f746174696f6e000000000000000000000000000000000000000000604482015260640161065e565b600554421061083957604051631edf3f5560e01b815260206004820152600c60248201527f67726163655f706572696f640000000000000000000000000000000000000000604482015260640161065e565b600380546004805473ffffffffffffffffffffffffffffffffffffffff198084166001600160a01b0383811691821790965591169091556000600581905560405193909216929091839183917ffff96c7a2eef4dc9a2bf11c03549d1948fd36c6efd3230c079425640168d513091a35050565b6001600160a01b03811633146108d55760405163334bd91960e11b815260040160405180910390fd5b6108df8282610f55565b505050565b336001600160a01b037f000000000000000000000000000000000000000000000000000000000000000016146109485760405163973d02cb60e01b815260206004820152600860248201526774696d656c6f636b60c01b604482015260640161065e565b610950610fd8565b565b336001600160a01b037f000000000000000000000000000000000000000000000000000000000000000016146109b65760405163973d02cb60e01b815260206004820152600860248201526733bab0b93234b0b760c11b604482015260640161065e565b61095061102a565b60006109c8611065565b6109d0611089565b6001600160a01b03821660009081526006602052604090205460ff16610a21576040516305519d6f60e51b81526020600482015260056024820152643a37b5b2b760d91b604482015260640161065e565b3360009081526007602090815260408083206001600160a01b038616845290915290205460ff1615610a7f576040516308d7458b60e11b815260040161065e906020808252600490820152631c1bdbdb60e21b604082015260600190565b60408051336020808301919091526001600160a01b0385168284015282518083038401815260609092019092528051910120610adb7f0000000000000000000000000000000000000000000000000000000000000000826110b1565b3360008181526007602090815260408083206001600160a01b0389168085529252808320805460ff1916600117905551631eeb407360e11b8152600481019390935260248301529193503090633dd680e6906044016040805180830381865afa158015610b4c573d6000803e3d6000fd5b505050506040513d601f19601f82011682018060405250810190610b7091906112dd565b509050806001600160a01b0316836001600160a01b031614610bbf57604051631edf3f5560e01b815260206004820152600760248201526631b932b0ba329960c91b604482015260640161065e565b604051637c643b2f60e11b81526001600160a01b0385811660048301523360248301527f00000000000000000000000000000000000000000000000000000000000000008116604483015230606483015284169063f8c8765e90608401600060405180830381600087803b158015610c3657600080fd5b505af1158015610c4a573d6000803e3d6000fd5b50505050836001600160a01b0316836001600160a01b0316336001600160a01b03167f7fdd8ccf8941bc3b6acfdf4fcb687758bc3dd4ea45f987518d22cab153983a4385604051610c9d91815260200190565b60405180910390a45050610cb16001600255565b919050565b336001600160a01b037f00000000000000000000000000000000000000000000000000000000000000001614610d1a5760405163973d02cb60e01b815260206004820152600860248201526774696d656c6f636b60c01b604482015260640161065e565b6001600160a01b038116610d5d576040516305519d6f60e51b8152602060048201526009602482015268383ab13634b9b432b960b91b604482015260640161065e565b6003546001600160a01b0390811690821603610da8576040516305519d6f60e51b8152602060048201526009602482015268383ab13634b9b432b960b91b604482015260640161065e565b426005541115610de6576040516308d7458b60e11b81526020600482015260086024820152673937ba30ba34b7b760c11b604482015260640161065e565b60038054600480546001600160a01b0380841673ffffffffffffffffffffffffffffffffffffffff1992831617909255909116908316179055610e2c62093a804261130b565b60058190556004546040519182526001600160a01b03838116929116907f7ec71211efcc5e02c963a1ad4c7fc8b7a6a4774ae6d1a396e383066dd80aec419060200160405180910390a350565b600082815260208190526040902060010154610e9481610e9e565b61072a8383610f55565b610ea881336110c6565b50565b6000828152602081815260408083206001600160a01b038516845290915281205460ff16610f4d576000838152602081815260408083206001600160a01b03861684529091529020805460ff19166001179055610f053390565b6001600160a01b0316826001600160a01b0316847f2f8788117e7eff1d82e926ec794901d17c78024a50270940304540a733656f0d60405160405180910390a45060016105f8565b5060006105f8565b6000828152602081815260408083206001600160a01b038516845290915281205460ff1615610f4d576000838152602081815260408083206001600160a01b0386168085529252808320805460ff1916905551339286917ff6391f5c32d9c69d2a47ea670b442974b53935d1edc7fd64eb21e047a839171b9190a45060016105f8565b610fe061111d565b6001805460ff191690557f5db9ee0a495bf2e6ff9c91a7834c1ba4fdd244a5e8aa4e537bd38aeae4b073aa335b6040516001600160a01b03909116815260200160405180910390a1565b611032611065565b6001805460ff1916811790557f62e78cea01bee320cd4e420270b5ea74000d11b0c9f74754ebdbfc544b05a2583361100d565b60015460ff16156109505760405163d93c066560e01b815260040160405180910390fd5b60028054036110ab57604051633ee5aeb560e01b815260040160405180910390fd5b60028055565b60006110bf83836000611140565b9392505050565b6000828152602081815260408083206001600160a01b038516845290915290205460ff166111195760405163e2517d3f60e01b81526001600160a01b03821660048201526024810183905260440161065e565b5050565b60015460ff1661095057604051638dfc202b60e01b815260040160405180910390fd5b60008147101561116c5760405163cf47918160e01b81524760048201526024810183905260440161065e565b763d602d80600a3d3981f3363d3d373d3d3d363d730000008460601b60e81c176000526e5af43d82803e903d91602b57fd5bf38460781b17602052826037600984f590506001600160a01b0381166110bf5760405163b06ebf3d60e01b815260040160405180910390fd5b6000602082840312156111e957600080fd5b81356001600160e01b0319811681146110bf57600080fd5b6001600160a01b0381168114610ea857600080fd5b6000806040838503121561122957600080fd5b823561123481611201565b91506020830135801515811461124957600080fd5b809150509250929050565b60006020828403121561126657600080fd5b5035919050565b6000806040838503121561128057600080fd5b82359150602083013561124981611201565b600080604083850312156112a557600080fd5b82356112b081611201565b9150602083013561124981611201565b6000602082840312156112d257600080fd5b81356110bf81611201565b600080604083850312156112f057600080fd5b82516112fb81611201565b6020939093015192949293505050565b808201808211156105f857634e487b7160e01b600052601160045260246000fdfea2646970667358221220ff20e422a307ea4626bb40b92800d30d786923c9a664515a6110967fa446746a64736f6c634300081e0033",
  "linkReferences": {},
  "deployedLinkReferences": {}
}