{
  "_format": "hh-sol-artifact-1",
  "contractName": "RewardPoolImplementation",
  "sourceName": "contracts/RewardPoolImplementation.sol",
  "abi": [
    {
      "inputs": [],
      "stateMutability": "nonpayable",
      "type": "constructor"
    },
    {
      "inputs": [
        {
          "internalType": "string",
          "name": "resource",
          "type": "string"
        }
      ],
      "name": "AlreadyExists",
      "type": "error"
    },
    {
      "inputs": [],
      "name": "ECDSAInvalidSignature",
      "type": "error"
    },
    {
      "inputs": [
        {
          "internalType": "uint256",
          "name": "length",
          "type": "uint256"
        }
      ],
      "name": "ECDSAInvalidSignatureLength",
      "type": "error"
    },
    {
      "inputs": [
        {
          "internalType": "bytes32",
          "name": "s",
          "type": "bytes32"
        }
      ],
      "name": "ECDSAInvalidSignatureS",
      "type": "error"
    },
    {
      "inputs": [],
      "name": "EnforcedPause",
      "type": "error"
    },
    {
      "inputs": [],
      "name": "ExpectedPause",
      "type": "error"
    },
    {
      "inputs": [],
      "name": "InvalidInitialization",
      "type": "error"
    },
    {
      "inputs": [
        {
          "internalType": "string",
          "name": "param",
          "type": "string"
        }
      ],
      "name": "InvalidParameter",
      "type": "error"
    },
    {
      "inputs": [],
      "name": "NotInitializing",
      "type": "error"
    },
    {
      "inputs": [],
      "name": "ReentrancyGuardReentrantCall",
      "type": "error"
    },
    {
      "inputs": [
        {
          "internalType": "address",
          "name": "token",
          "type": "address"
        }
      ],
      "name": "SafeERC20FailedOperation",
      "type": "error"
    },
    {
      "inputs": [
        {
          "internalType": "string",
          "name": "check",
          "type": "string"
        }
      ],
      "name": "SecurityViolation",
      "type": "error"
    },
    {
      "inputs": [
        {
          "internalType": "string",
          "name": "role",
          "type": "string"
        }
      ],
      "name": "Unauthorized",
      "type": "error"
    },
    {
      "anonymous": false,
      "inputs": [
        {
          "indexed": true,
          "internalType": "address",
          "name": "account",
          "type": "address"
        },
        {
          "indexed": true,
          "internalType": "address",
          "name": "token",
          "type": "address"
        },
        {
          "indexed": true,
          "internalType": "uint256",
          "name": "cumulativeAmount",
          "type": "uint256"
        }
      ],
      "name": "ClaimedMinimal",
      "type": "event"
    },
    {
      "anonymous": false,
      "inputs": [],
      "name": "EIP712DomainChanged",
      "type": "event"
    },
    {
      "anonymous": false,
      "inputs": [
        {
          "indexed": true,
          "internalType": "address",
          "name": "to",
          "type": "address"
        },
        {
          "indexed": true,
          "internalType": "uint256",
          "name": "amount",
          "type": "uint256"
        }
      ],
      "name": "EmergencySweep",
      "type": "event"
    },
    {
      "anonymous": false,
      "inputs": [
        {
          "indexed": true,
          "internalType": "address",
          "name": "to",
          "type": "address"
        },
        {
          "indexed": false,
          "internalType": "string",
          "name": "justification",
          "type": "string"
        },
        {
          "indexed": true,
          "internalType": "uint256",
          "name": "executionTimestamp",
          "type": "uint256"
        }
      ],
      "name": "EmergencySweepNoticeInitiated",
      "type": "event"
    },
    {
      "anonymous": false,
      "inputs": [
        {
          "indexed": true,
          "internalType": "address",
          "name": "funder",
          "type": "address"
        },
        {
          "indexed": true,
          "internalType": "address",
          "name": "token",
          "type": "address"
        },
        {
          "indexed": true,
          "internalType": "uint256",
          "name": "amount",
          "type": "uint256"
        }
      ],
      "name": "Funded",
      "type": "event"
    },
    {
      "anonymous": false,
      "inputs": [
        {
          "indexed": false,
          "internalType": "uint64",
          "name": "version",
          "type": "uint64"
        }
      ],
      "name": "Initialized",
      "type": "event"
    },
    {
      "anonymous": false,
      "inputs": [
        {
          "indexed": false,
          "internalType": "address",
          "name": "account",
          "type": "address"
        }
      ],
      "name": "Paused",
      "type": "event"
    },
    {
      "anonymous": false,
      "inputs": [
        {
          "indexed": true,
          "internalType": "address",
          "name": "oldTreasury",
          "type": "address"
        },
        {
          "indexed": true,
          "internalType": "address",
          "name": "newTreasury",
          "type": "address"
        }
      ],
      "name": "PlatformTreasuryUpdated",
      "type": "event"
    },
    {
      "anonymous": false,
      "inputs": [
        {
          "indexed": false,
          "internalType": "address",
          "name": "account",
          "type": "address"
        }
      ],
      "name": "Unpaused",
      "type": "event"
    },
    {
      "inputs": [],
      "name": "EMERGENCY_NOTICE_PERIOD",
      "outputs": [
        {
          "internalType": "uint256",
          "name": "",
          "type": "uint256"
        }
      ],
      "stateMutability": "view",
      "type": "function"
    },
    {
      "inputs": [],
      "name": "EMERGENCY_SWEEP_GRACE_PERIOD",
      "outputs": [
        {
          "internalType": "uint256",
          "name": "",
          "type": "uint256"
        }
      ],
      "stateMutability": "view",
      "type": "function"
    },
    {
      "inputs": [],
      "name": "FEE_BPS",
      "outputs": [
        {
          "internalType": "uint16",
          "name": "",
          "type": "uint16"
        }
      ],
      "stateMutability": "view",
      "type": "function"
    },
    {
      "inputs": [],
      "name": "PUBLISHER_GRACE_PERIOD",
      "outputs": [
        {
          "internalType": "uint256",
          "name": "",
          "type": "uint256"
        }
      ],
      "stateMutability": "view",
      "type": "function"
    },
    {
      "inputs": [
        {
          "internalType": "address",
          "name": "",
          "type": "address"
        }
      ],
      "name": "alreadyClaimed",
      "outputs": [
        {
          "internalType": "uint256",
          "name": "",
          "type": "uint256"
        }
      ],
      "stateMutability": "view",
      "type": "function"
    },
    {
      "inputs": [
        {
          "internalType": "address",
          "name": "",
          "type": "address"
        }
      ],
      "name": "alreadyFeePaid",
      "outputs": [
        {
          "internalType": "uint256",
          "name": "",
          "type": "uint256"
        }
      ],
      "stateMutability": "view",
      "type": "function"
    },
    {
      "inputs": [],
      "name": "eip712Domain",
      "outputs": [
        {
          "internalType": "bytes1",
          "name": "fields",
          "type": "bytes1"
        },
        {
          "internalType": "string",
          "name": "name",
          "type": "string"
        },
        {
          "internalType": "string",
          "name": "version",
          "type": "string"
        },
        {
          "internalType": "uint256",
          "name": "chainId",
          "type": "uint256"
        },
        {
          "internalType": "address",
          "name": "verifyingContract",
          "type": "address"
        },
        {
          "internalType": "bytes32",
          "name": "salt",
          "type": "bytes32"
        },
        {
          "internalType": "uint256[]",
          "name": "extensions",
          "type": "uint256[]"
        }
      ],
      "stateMutability": "view",
      "type": "function"
    },
    {
      "inputs": [],
      "name": "emergencyNoticeTimestamp",
      "outputs": [
        {
          "internalType": "uint256",
          "name": "",
          "type": "uint256"
        }
      ],
      "stateMutability": "view",
      "type": "function"
    },
    {
      "inputs": [
        {
          "internalType": "address",
          "name": "to",
          "type": "address"
        }
      ],
      "name": "emergencySweepAll",
      "outputs": [],
      "stateMutability": "nonpayable",
      "type": "function"
    },
    {
      "inputs": [
        {
          "internalType": "uint256",
          "name": "amount",
          "type": "uint256"
        }
      ],
      "name": "fund",
      "outputs": [],
      "stateMutability": "nonpayable",
      "type": "function"
    },
    {
      "inputs": [
        {
          "internalType": "uint256",
          "name": "amount",
          "type": "uint256"
        },
        {
          "internalType": "uint256",
          "name": "deadline",
          "type": "uint256"
        },
        {
          "internalType": "uint8",
          "name": "v",
          "type": "uint8"
        },
        {
          "internalType": "bytes32",
          "name": "r",
          "type": "bytes32"
        },
        {
          "internalType": "bytes32",
          "name": "s",
          "type": "bytes32"
        }
      ],
      "name": "fundWithPermit",
      "outputs": [],
      "stateMutability": "nonpayable",
      "type": "function"
    },
    {
      "inputs": [],
      "name": "getFactory",
      "outputs": [
        {
          "internalType": "address",
          "name": "",
          "type": "address"
        }
      ],
      "stateMutability": "view",
      "type": "function"
    },
    {
      "inputs": [],
      "name": "globalAlreadyClaimed",
      "outputs": [
        {
          "internalType": "uint256",
          "name": "",
          "type": "uint256"
        }
      ],
      "stateMutability": "view",
      "type": "function"
    },
    {
      "inputs": [
        {
          "internalType": "address",
          "name": "token_",
          "type": "address"
        },
        {
          "internalType": "address",
          "name": "platformTreasury_",
          "type": "address"
        },
        {
          "internalType": "address",
          "name": "factory_",
          "type": "address"
        }
      ],
      "name": "initialize",
      "outputs": [],
      "stateMutability": "nonpayable",
      "type": "function"
    },
    {
      "inputs": [
        {
          "internalType": "address",
          "name": "to",
          "type": "address"
        },
        {
          "internalType": "string",
          "name": "justification",
          "type": "string"
        }
      ],
      "name": "initiateEmergencySweepNotice",
      "outputs": [],
      "stateMutability": "nonpayable",
      "type": "function"
    },
    {
      "inputs": [],
      "name": "lastClaimTimestamp",
      "outputs": [
        {
          "internalType": "uint256",
          "name": "",
          "type": "uint256"
        }
      ],
      "stateMutability": "view",
      "type": "function"
    },
    {
      "inputs": [],
      "name": "pause",
      "outputs": [],
      "stateMutability": "nonpayable",
      "type": "function"
    },
    {
      "inputs": [],
      "name": "paused",
      "outputs": [
        {
          "internalType": "bool",
          "name": "",
          "type": "bool"
        }
      ],
      "stateMutability": "view",
      "type": "function"
    },
    {
      "inputs": [
        {
          "internalType": "address",
          "name": "account",
          "type": "address"
        },
        {
          "internalType": "uint256",
          "name": "cumulativeAmount",
          "type": "uint256"
        },
        {
          "internalType": "bytes",
          "name": "signature",
          "type": "bytes"
        }
      ],
      "name": "payWithSig",
      "outputs": [
        {
          "internalType": "uint256",
          "name": "gross",
          "type": "uint256"
        },
        {
          "internalType": "uint256",
          "name": "fee",
          "type": "uint256"
        },
        {
          "internalType": "uint256",
          "name": "net",
          "type": "uint256"
        }
      ],
      "stateMutability": "nonpayable",
      "type": "function"
    },
    {
      "inputs": [],
      "name": "platformTreasury",
      "outputs": [
        {
          "internalType": "address",
          "name": "",
          "type": "address"
        }
      ],
      "stateMutability": "view",
      "type": "function"
    },
    {
      "inputs": [],
      "name": "poolConfig",
      "outputs": [
        {
          "internalType": "address",
          "name": "token",
          "type": "address"
        },
        {
          "internalType": "address",
          "name": "platformTreasury",
          "type": "address"
        },
        {
          "internalType": "address",
          "name": "factory",
          "type": "address"
        },
        {
          "internalType": "uint256",
          "name": "lastClaimTimestamp",
          "type": "uint256"
        }
      ],
      "stateMutability": "view",
      "type": "function"
    },
    {
      "inputs": [
        {
          "internalType": "bytes4",
          "name": "interfaceId",
          "type": "bytes4"
        }
      ],
      "name": "supportsInterface",
      "outputs": [
        {
          "internalType": "bool",
          "name": "",
          "type": "bool"
        }
      ],
      "stateMutability": "view",
      "type": "function"
    },
    {
      "inputs": [],
      "name": "token",
      "outputs": [
        {
          "internalType": "address",
          "name": "",
          "type": "address"
        }
      ],
      "stateMutability": "view",
      "type": "function"
    },
    {
      "inputs": [],
      "name": "unpause",
      "outputs": [],
      "stateMutability": "nonpayable",
      "type": "function"
    },
    {
      "inputs": [
        {
          "internalType": "address",
          "name": "newTreasury",
          "type": "address"
        }
      ],
      "name": "updatePlatformTreasury",
      "outputs": [],
      "stateMutability": "nonpayable",
      "type": "function"
    }
  ],
  "bytecode": "0x6080604052348015600f57600080fd5b506016601a565b60ca565b7ff0c57e16840df040f15088dc2f81fe391c3923bec73e23a9662efc9c229c6a00805468010000000000000000900460ff161560695760405163f92ee8a960e01b815260040160405180910390fd5b80546001600160401b039081161460c75780546001600160401b0319166001600160401b0390811782556040519081527fc7f505b2f371ae2175ee4913f4499e1f2633a7b5936321eed1cdaeb6115181d29060200160405180910390a15b50565b612526806100d96000396000f3fe608060405234801561001057600080fd5b50600436106101a35760003560e01c806384b0196e116100ee578063bf333f2c11610097578063ca1d209d11610071578063ca1d209d146103aa578063e138818c146103bd578063f54b893b146103ce578063fc0c546a146103ee57600080fd5b8063bf333f2c14610368578063c0c53b8b14610384578063c8b4f1131461039757600080fd5b8063943d7cae116100c8578063943d7cae146102dc5780639695e195146102ef578063ae333ec81461034857600080fd5b806384b0196e1461028957806388cc58e4146102a45780638d90fc39146102c957600080fd5b8063499602291161015057806368e735831161012a57806368e73583146102785780638327032a146101d05780638456cb591461028157600080fd5b806349960229146102335780635c975abb14610246578063607af3971461027057600080fd5b806317f7ab391161018157806317f7ab39146101f15780633f4ba83a146101fb578063488df2061461020557600080fd5b806301ffc9a7146101a85780630dbc2330146101d0578063177971b5146101e8575b600080fd5b6101bb6101b6366004611f78565b6103ff565b60405190151581526020015b60405180910390f35b6101da62093a8081565b6040519081526020016101c7565b6101da60075481565b6101da62ed4e0081565b610203610436565b005b610218610213366004612007565b6104ff565b604080519384526020840192909252908201526060016101c7565b610203610241366004612063565b61092e565b7fcd5ed15c6e187e77e9aee88184c21f4f2182ab5827cb3b7e07fbedcd63f033005460ff166101bb565b6003546101da565b6101da60065481565b610203610b5a565b610291610c1c565b6040516101c797969594939291906120fe565b6002546001600160a01b03165b6040516001600160a01b0390911681526020016101c7565b6102036102d7366004612196565b610ce2565b6102036102ea366004612196565b610f50565b600054600154600254600354610313936001600160a01b0390811693811692169084565b6040516101c794939291906001600160a01b039485168152928416602084015292166040820152606081019190915260800190565b6101da610356366004612196565b60056020526000908152604090205481565b6103716103e881565b60405161ffff90911681526020016101c7565b6102036103923660046121b3565b6110ab565b6102036103a53660046121fe565b611350565b6102036103b836600461224d565b6114fb565b6001546001600160a01b03166102b1565b6101da6103dc366004612196565b60046020526000908152604090205481565b6000546001600160a01b03166102b1565b60006001600160e01b03198216636020d57160e11b148061043057506301ffc9a760e01b6001600160e01b03198316145b92915050565b60025460408051637aadef8b60e01b815290516001600160a01b0390921691637aadef8b916004808201926020929091908290030181865afa158015610480573d6000803e3d6000fd5b505050506040513d601f19601f820116820180604052508101906104a49190612266565b6001600160a01b0316336001600160a01b0316146104f55760405163973d02cb60e01b815260206004820152600860248201526774696d656c6f636b60c01b60448201526064015b60405180910390fd5b6104fd611540565b565b600080600061050c6115b2565b6105146115fc565b6001600160a01b0387166000908152600460205260409020548611610564576040516308d7458b60e11b8152602060048201526005602482015264636c61696d60d81b60448201526064016104ec565b604080517fe0da7b78935b109a6ac574ba81dfdb0f304b8110bf64ff82005a8e415333534b60208201526001600160a01b038916918101919091526060810187905260009060800160405160208183030381529060405280519060200120905060006105cf8261163f565b905060006106138289898080601f01602080910402602001604051908101604052809392919081815260200183838082843760009201919091525061166c92505050565b905060008060008060020160009054906101000a90046001600160a01b03166001600160a01b031663f0c597c86040518163ffffffff1660e01b8152600401606060405180830381865afa15801561066f573d6000803e3d6000fd5b505050506040513d601f19601f820116820180604052508101906106939190612283565b9250925092506000836001600160a01b0316856001600160a01b031614806106e257506000821180156106c557508142105b80156106e25750826001600160a01b0316856001600160a01b0316145b90508061071e57604051631edf3f5560e01b81526020600482015260096024820152687369676e617475726560b81b60448201526064016104ec565b5050506001600160a01b038b1660009081526004602052604090205461074591508a6122dd565b955060006127106107586103e88c6122f0565b6107629190612307565b6001600160a01b038c1660009081526005602052604090205490915061078890826122dd565b955061079486886122dd565b6000546040516370a0823160e01b815230600482015291965088916001600160a01b03909116906370a0823190602401602060405180830381865afa1580156107e1573d6000803e3d6000fd5b505050506040513d601f19601f820116820180604052508101906108059190612329565b101561083e576040516305519d6f60e51b815260206004820152600760248201526662616c616e636560c81b60448201526064016104ec565b6001600160a01b038b1660009081526004602090815260408083208d9055600590915281209190915560068054889290610879908490612342565b909155505042600355600054610899906001600160a01b03168b86611696565b84156108bc576001546000546108bc916001600160a01b03918216911687611696565b600080546040518b926001600160a01b03928316928e16917fcb30b67136e80eb5d1a446a0f6ba9296285c283a46308f2dd5ed35f884c7c05b9190a450505061092460017f9b779b17422d0df92223018b32b4d1fa46e071723d6817e2486d003becc55f0055565b9450945094915050565b60025460408051637aadef8b60e01b815290516001600160a01b0390921691637aadef8b916004808201926020929091908290030181865afa158015610978573d6000803e3d6000fd5b505050506040513d601f19601f8201168201806040525081019061099c9190612266565b6001600160a01b0316336001600160a01b0316146109e85760405163973d02cb60e01b815260206004820152600860248201526774696d656c6f636b60c01b60448201526064016104ec565b7fcd5ed15c6e187e77e9aee88184c21f4f2182ab5827cb3b7e07fbedcd63f033005460ff16610a5a57604051631edf3f5560e01b815260206004820152600e60248201527f70617573655f726571756972656400000000000000000000000000000000000060448201526064016104ec565b6001600160a01b038316610a9d576040516305519d6f60e51b81526020600482015260096024820152681c9958da5c1a595b9d60ba1b60448201526064016104ec565b600354610aae9062ed4e0090612342565b421015610afe57604051631edf3f5560e01b815260206004820152600c60248201527f67726163655f706572696f64000000000000000000000000000000000000000060448201526064016104ec565b426007819055610b129062093a8090612342565b836001600160a01b03167f0a9e105fe5da56b19c882d75827d391370183279462d6145651f7d6dca4189678484604051610b4d929190612355565b60405180910390a3505050565b60025460408051631c93061360e21b815290516001600160a01b039092169163724c184c916004808201926020929091908290030181865afa158015610ba4573d6000803e3d6000fd5b505050506040513d601f19601f82011682018060405250810190610bc89190612266565b6001600160a01b0316336001600160a01b031614610c145760405163973d02cb60e01b815260206004820152600860248201526733bab0b93234b0b760c11b60448201526064016104ec565b6104fd611735565b600060608082808083817fa16a46d94261c7517cc8ff89f61c0ce93598e3c849801011dee649a6a557d1008054909150158015610c5b57506001810154155b610ca75760405162461bcd60e51b815260206004820152601560248201527f4549503731323a20556e696e697469616c697a6564000000000000000000000060448201526064016104ec565b610caf611790565b610cb7611865565b60408051600080825260208201909252600f60f81b9c939b5091995046985030975095509350915050565b60025460408051637aadef8b60e01b815290516001600160a01b0390921691637aadef8b916004808201926020929091908290030181865afa158015610d2c573d6000803e3d6000fd5b505050506040513d601f19601f82011682018060405250810190610d509190612266565b6001600160a01b0316336001600160a01b031614610d9c5760405163973d02cb60e01b815260206004820152600860248201526774696d656c6f636b60c01b60448201526064016104ec565b600754600003610def576040516305519d6f60e51b815260206004820152600f60248201527f6e6f746963655f7265717569726564000000000000000000000000000000000060448201526064016104ec565b62093a80600754610e009190612342565b421015610e50576040516305519d6f60e51b815260206004820152600d60248201527f6e6f746963655f706572696f640000000000000000000000000000000000000060448201526064016104ec565b600080546040516370a0823160e01b81523060048201526001600160a01b03909116906370a0823190602401602060405180830381865afa158015610e99573d6000803e3d6000fd5b505050506040513d601f19601f82011682018060405250810190610ebd9190612329565b905080600003610efa576040516305519d6f60e51b815260206004820152600760248201526662616c616e636560c81b60448201526064016104ec565b600054610f11906001600160a01b03168383611696565b6000600781905560405182916001600160a01b038516917f1d31c87abea8d74946d05511e408fca752920c5018b5da81ac5df48a692137f79190a35050565b60025460408051637aadef8b60e01b815290516001600160a01b0390921691637aadef8b916004808201926020929091908290030181865afa158015610f9a573d6000803e3d6000fd5b505050506040513d601f19601f82011682018060405250810190610fbe9190612266565b6001600160a01b0316336001600160a01b03161461100a5760405163973d02cb60e01b815260206004820152600860248201526774696d656c6f636b60c01b60448201526064016104ec565b6001600160a01b03811661104c576040516305519d6f60e51b8152602060048201526008602482015267747265617375727960c01b60448201526064016104ec565b600180546001600160a01b0383811673ffffffffffffffffffffffffffffffffffffffff19831681179093556040519116919082907ff3814cc4b6220f5bf02409e4cebe75e5032fdb20cef0db459431fd5cba574b9390600090a35050565b60006110b56118b6565b805490915060ff68010000000000000000820416159067ffffffffffffffff166000811580156110e25750825b905060008267ffffffffffffffff1660011480156110ff5750303b155b90508115801561110d575080155b1561112b5760405163f92ee8a960e01b815260040160405180910390fd5b845467ffffffffffffffff19166001178555831561115f57845468ff00000000000000001916680100000000000000001785555b6001600160a01b03881661119e576040516305519d6f60e51b81526020600482015260056024820152643a37b5b2b760d91b60448201526064016104ec565b6001600160a01b0387166111e0576040516305519d6f60e51b8152602060048201526008602482015267747265617375727960c01b60448201526064016104ec565b6001600160a01b038616611221576040516305519d6f60e51b8152602060048201526007602482015266666163746f727960c81b60448201526064016104ec565b6112296118df565b6112316118e7565b6112896040518060400160405280600c81526020017f466163746f72795661756c740000000000000000000000000000000000000000815250604051806040016040528060018152602001603160f81b8152506118f7565b604080516080810182526001600160a01b03808b168083528a821660208401819052918a169383018490524260609093018390526000805473ffffffffffffffffffffffffffffffffffffffff19908116909217905560018054821690921790915560028054909116909217909155600355831561134657845468ff000000000000000019168555604051600181527fc7f505b2f371ae2175ee4913f4499e1f2633a7b5936321eed1cdaeb6115181d29060200160405180910390a15b5050505050505050565b6113586115b2565b6113606115fc565b60005460405163d505accf60e01b8152336004820152306024820152604481018790526064810186905260ff8516608482015260a4810184905260c481018390526001600160a01b0390911690819063d505accf9060e401600060405180830381600087803b1580156113d257600080fd5b505af19250505080156113e3575060015b61141957604051631edf3f5560e01b81526020600482015260066024820152651c195c9b5a5d60d21b60448201526064016104ec565b604051636eb1769f60e11b815233600482015230602482015286906001600160a01b0383169063dd62ed3e90604401602060405180830381865afa158015611465573d6000803e3d6000fd5b505050506040513d601f19601f820116820180604052508101906114899190612329565b10156114c157604051631edf3f5560e01b81526020600482015260066024820152651c195c9b5a5d60d21b60448201526064016104ec565b6114ca8661190d565b506114f460017f9b779b17422d0df92223018b32b4d1fa46e071723d6817e2486d003becc55f0055565b5050505050565b6115036115b2565b61150b6115fc565b6115148161190d565b61153d60017f9b779b17422d0df92223018b32b4d1fa46e071723d6817e2486d003becc55f0055565b50565b611548611aa1565b7fcd5ed15c6e187e77e9aee88184c21f4f2182ab5827cb3b7e07fbedcd63f03300805460ff191681557f5db9ee0a495bf2e6ff9c91a7834c1ba4fdd244a5e8aa4e537bd38aeae4b073aa335b6040516001600160a01b03909116815260200160405180910390a150565b7f9b779b17422d0df92223018b32b4d1fa46e071723d6817e2486d003becc55f008054600119016115f657604051633ee5aeb560e01b815260040160405180910390fd5b60029055565b7fcd5ed15c6e187e77e9aee88184c21f4f2182ab5827cb3b7e07fbedcd63f033005460ff16156104fd5760405163d93c066560e01b815260040160405180910390fd5b600061043061164c611ae3565b8360405161190160f01b8152600281019290925260228201526042902090565b60008060008061167c8686611af2565b92509250925061168c8282611b3f565b5090949350505050565b6040516001600160a01b0383811660248301526044820183905261170a91859182169063a9059cbb906064015b604051602081830303815290604052915060e01b6020820180517bffffffffffffffffffffffffffffffffffffffffffffffffffffffff8381831617835250505050611bf8565b505050565b60017f9b779b17422d0df92223018b32b4d1fa46e071723d6817e2486d003becc55f0055565b61173d6115fc565b7fcd5ed15c6e187e77e9aee88184c21f4f2182ab5827cb3b7e07fbedcd63f03300805460ff191660011781557f62e78cea01bee320cd4e420270b5ea74000d11b0c9f74754ebdbfc544b05a25833611594565b7fa16a46d94261c7517cc8ff89f61c0ce93598e3c849801011dee649a6a557d10280546060917fa16a46d94261c7517cc8ff89f61c0ce93598e3c849801011dee649a6a557d100916117e19061239a565b80601f016020809104026020016040519081016040528092919081815260200182805461180d9061239a565b801561185a5780601f1061182f5761010080835404028352916020019161185a565b820191906000526020600020905b81548152906001019060200180831161183d57829003601f168201915b505050505091505090565b7fa16a46d94261c7517cc8ff89f61c0ce93598e3c849801011dee649a6a557d10380546060917fa16a46d94261c7517cc8ff89f61c0ce93598e3c849801011dee649a6a557d100916117e19061239a565b6000807ff0c57e16840df040f15088dc2f81fe391c3923bec73e23a9662efc9c229c6a00610430565b6104fd611c6f565b6118ef611c6f565b6104fd611c94565b6118ff611c6f565b6119098282611c9c565b5050565b600080546040516370a0823160e01b81523060048201526001600160a01b03909116919082906370a0823190602401602060405180830381865afa158015611959573d6000803e3d6000fd5b505050506040513d601f19601f8201168201806040525081019061197d9190612329565b90506119946001600160a01b038316333086611d0f565b6040516370a0823160e01b81523060048201526000906001600160a01b038416906370a0823190602401602060405180830381865afa1580156119db573d6000803e3d6000fd5b505050506040513d601f19601f820116820180604052508101906119ff9190612329565b90506000611a0d83836122dd565b9050848114611a5f57604051631edf3f5560e01b815260206004820152600e60248201527f746f6b656e5f7472616e7366657200000000000000000000000000000000000060448201526064016104ec565b6000805460405187926001600160a01b039092169133917f3b5083eec1a1116c56de5d6841cff8efc6a0aec9850e836ec509d6ce024ea5619190a45050505050565b7fcd5ed15c6e187e77e9aee88184c21f4f2182ab5827cb3b7e07fbedcd63f033005460ff166104fd57604051638dfc202b60e01b815260040160405180910390fd5b6000611aed611d48565b905090565b60008060008351604103611b2c5760208401516040850151606086015160001a611b1e88828585611dbc565b955095509550505050611b38565b50508151600091506002905b9250925092565b6000826003811115611b5357611b536123d4565b03611b5c575050565b6001826003811115611b7057611b706123d4565b03611b8e5760405163f645eedf60e01b815260040160405180910390fd5b6002826003811115611ba257611ba26123d4565b03611bc35760405163fce698f760e01b8152600481018290526024016104ec565b6003826003811115611bd757611bd76123d4565b03611909576040516335e2f38360e21b8152600481018290526024016104ec565b600080602060008451602086016000885af180611c1b576040513d6000823e3d81fd5b50506000513d91508115611c33578060011415611c40565b6001600160a01b0384163b155b15611c6957604051635274afe760e01b81526001600160a01b03851660048201526024016104ec565b50505050565b611c77611e87565b6104fd57604051631afcd79f60e31b815260040160405180910390fd5b61170f611c6f565b611ca4611c6f565b7fa16a46d94261c7517cc8ff89f61c0ce93598e3c849801011dee649a6a557d1007fa16a46d94261c7517cc8ff89f61c0ce93598e3c849801011dee649a6a557d102611cf08482612431565b5060038101611cff8382612431565b5060008082556001909101555050565b6040516001600160a01b038481166024830152838116604483015260648201839052611c699186918216906323b872dd906084016116c3565b60007f8b73c3c69bb8fe3d512ecc4cf759cc79239f7b179b0ffacaa9a75d522b39400f611d73611ea6565b611d7b611f22565b60408051602081019490945283019190915260608201524660808201523060a082015260c00160405160208183030381529060405280519060200120905090565b600080807f7fffffffffffffffffffffffffffffff5d576e7357a4501ddfe92f46681b20a0841115611df75750600091506003905082610924565b604080516000808252602082018084528a905260ff891692820192909252606081018790526080810186905260019060a0016020604051602081039080840390855afa158015611e4b573d6000803e3d6000fd5b5050604051601f1901519150506001600160a01b038116611e7757506000925060019150829050610924565b9760009750879650945050505050565b6000611e916118b6565b5468010000000000000000900460ff16919050565b60007fa16a46d94261c7517cc8ff89f61c0ce93598e3c849801011dee649a6a557d10081611ed2611790565b805190915015611eea57805160209091012092915050565b81548015611ef9579392505050565b7fc5d2460186f7233c927e7db2dcc703c0e500b653ca82273b7bfad8045d85a470935050505090565b60007fa16a46d94261c7517cc8ff89f61c0ce93598e3c849801011dee649a6a557d10081611f4e611865565b805190915015611f6657805160209091012092915050565b60018201548015611ef9579392505050565b600060208284031215611f8a57600080fd5b81356001600160e01b031981168114611fa257600080fd5b9392505050565b6001600160a01b038116811461153d57600080fd5b60008083601f840112611fd057600080fd5b50813567ffffffffffffffff811115611fe857600080fd5b60208301915083602082850101111561200057600080fd5b9250929050565b6000806000806060858703121561201d57600080fd5b843561202881611fa9565b935060208501359250604085013567ffffffffffffffff81111561204b57600080fd5b61205787828801611fbe565b95989497509550505050565b60008060006040848603121561207857600080fd5b833561208381611fa9565b9250602084013567ffffffffffffffff81111561209f57600080fd5b6120ab86828701611fbe565b9497909650939450505050565b6000815180845260005b818110156120de576020818501810151868301820152016120c2565b506000602082860101526020601f19601f83011685010191505092915050565b60ff60f81b8816815260e06020820152600061211d60e08301896120b8565b828103604084015261212f81896120b8565b606084018890526001600160a01b038716608085015260a0840186905283810360c08501528451808252602080870193509091019060005b81811015612185578351835260209384019390920191600101612167565b50909b9a5050505050505050505050565b6000602082840312156121a857600080fd5b8135611fa281611fa9565b6000806000606084860312156121c857600080fd5b83356121d381611fa9565b925060208401356121e381611fa9565b915060408401356121f381611fa9565b809150509250925092565b600080600080600060a0868803121561221657600080fd5b8535945060208601359350604086013560ff8116811461223557600080fd5b94979396509394606081013594506080013592915050565b60006020828403121561225f57600080fd5b5035919050565b60006020828403121561227857600080fd5b8151611fa281611fa9565b60008060006060848603121561229857600080fd5b83516122a381611fa9565b60208501519093506122b481611fa9565b6040949094015192959394509192915050565b634e487b7160e01b600052601160045260246000fd5b81810381811115610430576104306122c7565b8082028115828204841417610430576104306122c7565b60008261232457634e487b7160e01b600052601260045260246000fd5b500490565b60006020828403121561233b57600080fd5b5051919050565b80820180821115610430576104306122c7565b60208152816020820152818360408301376000818301604090810191909152601f909201601f19160101919050565b634e487b7160e01b600052604160045260246000fd5b600181811c908216806123ae57607f821691505b6020821081036123ce57634e487b7160e01b600052602260045260246000fd5b50919050565b634e487b7160e01b600052602160045260246000fd5b601f82111561170a57806000526020600020601f840160051c810160208510156124115750805b601f840160051c820191505b818110156114f4576000815560010161241d565b815167ffffffffffffffff81111561244b5761244b612384565b61245f81612459845461239a565b846123ea565b6020601f821160018114612493576000831561247b5750848201515b600019600385901b1c1916600184901b1784556114f4565b600084815260208120601f198516915b828110156124c357878501518255602094850194600190920191016124a3565b50848210156124e15786840151600019600387901b60f8161c191681555b50505050600190811b0190555056fea264697066735822122087bc436690a93dad84393afe79d61a177b0841550e9dacf670e4523a603212cc64736f6c634300081e0033",
  "linkReferences": {},
  "deployedLinkReferences": {}
}