{
  "_format": "hh-sol-artifact-1",
  "contractName": "RewardPoolFactory",
  "sourceName": "contracts/RewardPoolFactory.sol",
  "abi": [
    {
      "inputs": [
        {
          "internalType": "address",
          "name": "_poolImplementation",
          "type": "address"
        },
        {
          "internalType": "address",
          "name": "_platformTreasury",
          "type": "address"
        },
        {
          "internalType": "address",
          "name": "_timelock",
          "type": "address"
        },
        {
          "internalType": "address",
          "name": "_guardian",
          "type": "address"
        },
        {
          "internalType": "address",
          "name": "_publisher",
          "type": "address"
        }
      ],
      "stateMutability": "nonpayable",
      "type": "constructor"
    },
    {
      "inputs": [],
      "name": "AccessControlBadConfirmation",
      "type": "error"
    },
    {
      "inputs": [
        {
          "internalType": "address",
          "name": "account",
          "type": "address"
        },
        {
          "internalType": "bytes32",
          "name": "neededRole",
          "type": "bytes32"
        }
      ],
      "name": "AccessControlUnauthorizedAccount",
      "type": "error"
    },
    {
      "inputs": [
        {
          "internalType": "string",
          "name": "resource",
          "type": "string"
        }
      ],
      "name": "AlreadyExists",
      "type": "error"
    },
    {
      "inputs": [],
      "name": "EnforcedPause",
      "type": "error"
    },
    {
      "inputs": [],
      "name": "ExpectedPause",
      "type": "error"
    },
    {
      "inputs": [],
      "name": "FailedDeployment",
      "type": "error"
    },
    {
      "inputs": [
        {
          "internalType": "uint256",
          "name": "balance",
          "type": "uint256"
        },
        {
          "internalType": "uint256",
          "name": "needed",
          "type": "uint256"
        }
      ],
      "name": "InsufficientBalance",
      "type": "error"
    },
    {
      "inputs": [
        {
          "internalType": "string",
          "name": "param",
          "type": "string"
        }
      ],
      "name": "InvalidParameter",
      "type": "error"
    },
    {
      "inputs": [],
      "name": "ReentrancyGuardReentrantCall",
      "type": "error"
    },
    {
      "inputs": [
        {
          "internalType": "string",
          "name": "check",
          "type": "string"
        }
      ],
      "name": "SecurityViolation",
      "type": "error"
    },
    {
      "inputs": [
        {
          "internalType": "string",
          "name": "role",
          "type": "string"
        }
      ],
      "name": "Unauthorized",
      "type": "error"
    },
    {
      "anonymous": false,
      "inputs": [
        {
          "indexed": false,
          "internalType": "address",
          "name": "account",
          "type": "address"
        }
      ],
      "name": "Paused",
      "type": "event"
    },
    {
      "anonymous": false,
      "inputs": [
        {
          "indexed": true,
          "internalType": "address",
          "name": "creator",
          "type": "address"
        },
        {
          "indexed": true,
          "internalType": "address",
          "name": "pool",
          "type": "address"
        },
        {
          "indexed": true,
          "internalType": "address",
          "name": "token",
          "type": "address"
        },
        {
          "indexed": false,
          "internalType": "bytes32",
          "name": "salt",
          "type": "bytes32"
        },
        {
          "indexed": false,
          "internalType": "uint256",
          "name": "nonce",
          "type": "uint256"
        }
      ],
      "name": "PoolCreated",
      "type": "event"
    },
    {
      "anonymous": false,
      "inputs": [
        {
          "indexed": true,
          "internalType": "address",
          "name": "creator",
          "type": "address"
        },
        {
          "indexed": true,
          "internalType": "address",
          "name": "pool",
          "type": "address"
        },
        {
          "indexed": true,
          "internalType": "address",
          "name": "token",
          "type": "address"
        },
        {
          "indexed": false,
          "internalType": "bytes32",
          "name": "salt",
          "type": "bytes32"
        },
        {
          "indexed": false,
          "internalType": "uint256",
          "name": "nonce",
          "type": "uint256"
        },
        {
          "indexed": false,
          "internalType": "uint256",
          "name": "fundingAmount",
          "type": "uint256"
        }
      ],
      "name": "PoolCreatedAndFunded",
      "type": "event"
    },
    {
      "anonymous": false,
      "inputs": [
        {
          "indexed": true,
          "internalType": "address",
          "name": "restoredPublisher",
          "type": "address"
        },
        {
          "indexed": true,
          "internalType": "address",
          "name": "cancelledPublisher",
          "type": "address"
        }
      ],
      "name": "PublisherRotationCancelled",
      "type": "event"
    },
    {
      "anonymous": false,
      "inputs": [
        {
          "indexed": true,
          "internalType": "address",
          "name": "oldPublisher",
          "type": "address"
        },
        {
          "indexed": true,
          "internalType": "address",
          "name": "newPublisher",
          "type": "address"
        },
        {
          "indexed": true,
          "internalType": "uint256",
          "name": "graceEndTime",
          "type": "uint256"
        }
      ],
      "name": "PublisherRotationInitiated",
      "type": "event"
    },
    {
      "anonymous": false,
      "inputs": [
        {
          "indexed": true,
          "internalType": "bytes32",
          "name": "role",
          "type": "bytes32"
        },
        {
          "indexed": true,
          "internalType": "bytes32",
          "name": "previousAdminRole",
          "type": "bytes32"
        },
        {
          "indexed": true,
          "internalType": "bytes32",
          "name": "newAdminRole",
          "type": "bytes32"
        }
      ],
      "name": "RoleAdminChanged",
      "type": "event"
    },
    {
      "anonymous": false,
      "inputs": [
        {
          "indexed": true,
          "internalType": "bytes32",
          "name": "role",
          "type": "bytes32"
        },
        {
          "indexed": true,
          "internalType": "address",
          "name": "account",
          "type": "address"
        },
        {
          "indexed": true,
          "internalType": "address",
          "name": "sender",
          "type": "address"
        }
      ],
      "name": "RoleGranted",
      "type": "event"
    },
    {
      "anonymous": false,
      "inputs": [
        {
          "indexed": true,
          "internalType": "bytes32",
          "name": "role",
          "type": "bytes32"
        },
        {
          "indexed": true,
          "internalType": "address",
          "name": "account",
          "type": "address"
        },
        {
          "indexed": true,
          "internalType": "address",
          "name": "sender",
          "type": "address"
        }
      ],
      "name": "RoleRevoked",
      "type": "event"
    },
    {
      "anonymous": false,
      "inputs": [
        {
          "indexed": true,
          "internalType": "address",
          "name": "token",
          "type": "address"
        },
        {
          "indexed": true,
          "internalType": "bool",
          "name": "allowed",
          "type": "bool"
        }
      ],
      "name": "TokenAllowedUpdated",
      "type": "event"
    },
    {
      "anonymous": false,
      "inputs": [
        {
          "indexed": false,
          "internalType": "address",
          "name": "account",
          "type": "address"
        }
      ],
      "name": "Unpaused",
      "type": "event"
    },
    {
      "inputs": [],
      "name": "DEFAULT_ADMIN_ROLE",
      "outputs": [
        {
          "internalType": "bytes32",
          "name": "",
          "type": "bytes32"
        }
      ],
      "stateMutability": "view",
      "type": "function"
    },
    {
      "inputs": [],
      "name": "EMERGENCY_ROLE",
      "outputs": [
        {
          "internalType": "bytes32",
          "name": "",
          "type": "bytes32"
        }
      ],
      "stateMutability": "view",
      "type": "function"
    },
    {
      "inputs": [],
      "name": "GUARDIAN",
      "outputs": [
        {
          "internalType": "address",
          "name": "",
          "type": "address"
        }
      ],
      "stateMutability": "view",
      "type": "function"
    },
    {
      "inputs": [],
      "name": "PLATFORM_TREASURY",
      "outputs": [
        {
          "internalType": "address",
          "name": "",
          "type": "address"
        }
      ],
      "stateMutability": "view",
      "type": "function"
    },
    {
      "inputs": [],
      "name": "POOL_IMPLEMENTATION",
      "outputs": [
        {
          "internalType": "address",
          "name": "",
          "type": "address"
        }
      ],
      "stateMutability": "view",
      "type": "function"
    },
    {
      "inputs": [],
      "name": "PUBLISHER_GRACE_PERIOD",
      "outputs": [
        {
          "internalType": "uint256",
          "name": "",
          "type": "uint256"
        }
      ],
      "stateMutability": "view",
      "type": "function"
    },
    {
      "inputs": [],
      "name": "TIMELOCK",
      "outputs": [
        {
          "internalType": "address",
          "name": "",
          "type": "address"
        }
      ],
      "stateMutability": "view",
      "type": "function"
    },
    {
      "inputs": [],
      "name": "TIMELOCK_ROLE",
      "outputs": [
        {
          "internalType": "bytes32",
          "name": "",
          "type": "bytes32"
        }
      ],
      "stateMutability": "view",
      "type": "function"
    },
    {
      "inputs": [
        {
          "internalType": "address",
          "name": "",
          "type": "address"
        }
      ],
      "name": "allowedTokens",
      "outputs": [
        {
          "internalType": "bool",
          "name": "",
          "type": "bool"
        }
      ],
      "stateMutability": "view",
      "type": "function"
    },
    {
      "inputs": [],
      "name": "cancelPublisherRotation",
      "outputs": [],
      "stateMutability": "nonpayable",
      "type": "function"
    },
    {
      "inputs": [
        {
          "internalType": "address",
          "name": "token",
          "type": "address"
        },
        {
          "internalType": "uint256",
          "name": "fundingAmount",
          "type": "uint256"
        }
      ],
      "name": "createAndFundPool",
      "outputs": [
        {
          "internalType": "address",
          "name": "pool",
          "type": "address"
        }
      ],
      "stateMutability": "nonpayable",
      "type": "function"
    },
    {
      "inputs": [
        {
          "internalType": "address",
          "name": "token",
          "type": "address"
        }
      ],
      "name": "createPool",
      "outputs": [
        {
          "internalType": "address",
          "name": "pool",
          "type": "address"
        }
      ],
      "stateMutability": "nonpayable",
      "type": "function"
    },
    {
      "inputs": [],
      "name": "getGuardianInfo",
      "outputs": [
        {
          "internalType": "address",
          "name": "",
          "type": "address"
        }
      ],
      "stateMutability": "view",
      "type": "function"
    },
    {
      "inputs": [],
      "name": "getPublisherInfo",
      "outputs": [
        {
          "internalType": "address",
          "name": "current",
          "type": "address"
        },
        {
          "internalType": "address",
          "name": "old",
          "type": "address"
        },
        {
          "internalType": "uint256",
          "name": "graceEnd",
          "type": "uint256"
        }
      ],
      "stateMutability": "view",
      "type": "function"
    },
    {
      "inputs": [
        {
          "internalType": "bytes32",
          "name": "role",
          "type": "bytes32"
        }
      ],
      "name": "getRoleAdmin",
      "outputs": [
        {
          "internalType": "bytes32",
          "name": "",
          "type": "bytes32"
        }
      ],
      "stateMutability": "view",
      "type": "function"
    },
    {
      "inputs": [],
      "name": "graceEndTime",
      "outputs": [
        {
          "internalType": "uint256",
          "name": "",
          "type": "uint256"
        }
      ],
      "stateMutability": "view",
      "type": "function"
    },
    {
      "inputs": [
        {
          "internalType": "bytes32",
          "name": "role",
          "type": "bytes32"
        },
        {
          "internalType": "address",
          "name": "account",
          "type": "address"
        }
      ],
      "name": "grantRole",
      "outputs": [],
      "stateMutability": "nonpayable",
      "type": "function"
    },
    {
      "inputs": [
        {
          "internalType": "bytes32",
          "name": "role",
          "type": "bytes32"
        },
        {
          "internalType": "address",
          "name": "account",
          "type": "address"
        }
      ],
      "name": "hasRole",
      "outputs": [
        {
          "internalType": "bool",
          "name": "",
          "type": "bool"
        }
      ],
      "stateMutability": "view",
      "type": "function"
    },
    {
      "inputs": [
        {
          "internalType": "address",
          "name": "newPublisher",
          "type": "address"
        }
      ],
      "name": "initiatePublisherRotation",
      "outputs": [],
      "stateMutability": "nonpayable",
      "type": "function"
    },
    {
      "inputs": [],
      "name": "oldPublisher",
      "outputs": [
        {
          "internalType": "address",
          "name": "",
          "type": "address"
        }
      ],
      "stateMutability": "view",
      "type": "function"
    },
    {
      "inputs": [],
      "name": "pause",
      "outputs": [],
      "stateMutability": "nonpayable",
      "type": "function"
    },
    {
      "inputs": [],
      "name": "paused",
      "outputs": [
        {
          "internalType": "bool",
          "name": "",
          "type": "bool"
        }
      ],
      "stateMutability": "view",
      "type": "function"
    },
    {
      "inputs": [
        {
          "internalType": "address",
          "name": "",
          "type": "address"
        },
        {
          "internalType": "address",
          "name": "",
          "type": "address"
        }
      ],
      "name": "poolNonce",
      "outputs": [
        {
          "internalType": "uint256",
          "name": "",
          "type": "uint256"
        }
      ],
      "stateMutability": "view",
      "type": "function"
    },
    {
      "inputs": [
        {
          "internalType": "address",
          "name": "creator",
          "type": "address"
        },
        {
          "internalType": "address",
          "name": "token",
          "type": "address"
        }
      ],
      "name": "predictPoolAddress",
      "outputs": [
        {
          "internalType": "address",
          "name": "predicted",
          "type": "address"
        },
        {
          "internalType": "bytes32",
          "name": "salt",
          "type": "bytes32"
        }
      ],
      "stateMutability": "view",
      "type": "function"
    },
    {
      "inputs": [
        {
          "internalType": "address",
          "name": "creator",
          "type": "address"
        },
        {
          "internalType": "address",
          "name": "token",
          "type": "address"
        },
        {
          "internalType": "uint256",
          "name": "nonce",
          "type": "uint256"
        }
      ],
      "name": "predictPoolAddressWithNonce",
      "outputs": [
        {
          "internalType": "address",
          "name": "predicted",
          "type": "address"
        },
        {
          "internalType": "bytes32",
          "name": "salt",
          "type": "bytes32"
        }
      ],
      "stateMutability": "view",
      "type": "function"
    },
    {
      "inputs": [],
      "name": "publisher",
      "outputs": [
        {
          "internalType": "address",
          "name": "",
          "type": "address"
        }
      ],
      "stateMutability": "view",
      "type": "function"
    },
    {
      "inputs": [
        {
          "internalType": "bytes32",
          "name": "role",
          "type": "bytes32"
        },
        {
          "internalType": "address",
          "name": "callerConfirmation",
          "type": "address"
        }
      ],
      "name": "renounceRole",
      "outputs": [],
      "stateMutability": "nonpayable",
      "type": "function"
    },
    {
      "inputs": [
        {
          "internalType": "bytes32",
          "name": "role",
          "type": "bytes32"
        },
        {
          "internalType": "address",
          "name": "account",
          "type": "address"
        }
      ],
      "name": "revokeRole",
      "outputs": [],
      "stateMutability": "nonpayable",
      "type": "function"
    },
    {
      "inputs": [
        {
          "internalType": "address",
          "name": "token",
          "type": "address"
        },
        {
          "internalType": "bool",
          "name": "allowed",
          "type": "bool"
        }
      ],
      "name": "setTokenAllowed",
      "outputs": [],
      "stateMutability": "nonpayable",
      "type": "function"
    },
    {
      "inputs": [
        {
          "internalType": "bytes4",
          "name": "interfaceId",
          "type": "bytes4"
        }
      ],
      "name": "supportsInterface",
      "outputs": [
        {
          "internalType": "bool",
          "name": "",
          "type": "bool"
        }
      ],
      "stateMutability": "view",
      "type": "function"
    },
    {
      "inputs": [],
      "name": "unpause",
      "outputs": [],
      "stateMutability": "nonpayable",
      "type": "function"
    }
  ],
  "bytecode": "0x61010060405234801561001157600080fd5b50604051611a1c380380611a1c833981016040819052610030916102f6565b60016002556001600160a01b038516610082576040516305519d6f60e51b815260206004820152600e60248201526d34b6b83632b6b2b73a30ba34b7b760911b60448201526064015b60405180910390fd5b6001600160a01b0384166100c4576040516305519d6f60e51b8152602060048201526008602482015267747265617375727960c01b6044820152606401610079565b6001600160a01b038316610106576040516305519d6f60e51b815260206004820152600860248201526774696d656c6f636b60c01b6044820152606401610079565b6001600160a01b038216610148576040516305519d6f60e51b815260206004820152600860248201526733bab0b93234b0b760c11b6044820152606401610079565b6001600160a01b03811661018b576040516305519d6f60e51b8152602060048201526009602482015268383ab13634b9b432b960b91b6044820152606401610079565b6001600160a01b0385811660805284811660a05283811660c05282811660e052600380546001600160a01b0319169183169190911790556101cd60008461022e565b506101f87ff66846415d2bf9eabda9e84793ff9c0ea96d87f50fc41e66aa16469c6a442f058461022e565b506102237fbf233dd2aafeb4d50879c4aa5c81e96d92f6e6945c906a58f9f2d1c1631b4b268361022e565b50505050505061035b565b6000828152602081815260408083206001600160a01b038516845290915281205460ff166102d0576000838152602081815260408083206001600160a01b03861684529091529020805460ff191660011790556102883390565b6001600160a01b0316826001600160a01b0316847f2f8788117e7eff1d82e926ec794901d17c78024a50270940304540a733656f0d60405160405180910390a45060016102d4565b5060005b92915050565b80516001600160a01b03811681146102f157600080fd5b919050565b600080600080600060a0868803121561030e57600080fd5b610317866102da565b9450610325602087016102da565b9350610333604087016102da565b9250610341606087016102da565b915061034f608087016102da565b90509295509295909350565b60805160a05160c05160e0516116496103d36000396000818161037d0152818161050401526109a80152600081816103a40152818161062a015281816107510152818161093a0152610bba0152600081816104680152611148015260008181610217015281816105b5015261107101526116496000f3fe608060405234801561001057600080fd5b50600436106101e55760003560e01c80637aadef8b1161010f578063a217fddf116100a2578063e744092e11610071578063e744092e146104b0578063f0c597c8146104d3578063f21b0d8214610502578063f288a2e21461052857600080fd5b8063a217fddf1461045b578063ac61415814610463578063b51bbf581461048a578063d547741f1461049d57600080fd5b80638c72c54e116100de5780638c72c54e146103eb5780638fb3075d146103fe5780639049f9d21461041157806391d148541461042457600080fd5b80637aadef8b1461039f5780638327032a146103c65780638456cb59146103d0578063882c2792146103d857600080fd5b80632f2ff15d116101875780633f4ba83a116101565780633f4ba83a1461033a578063570ef46b146103425780635c975abb1461036d578063724c184c1461037857600080fd5b80632f2ff15d146102f957806335ffdcad1461030c57806336568abe146103145780633dd680e61461032757600080fd5b806315f69012116101c357806315f69012146102835780631b3c1a781461029857806320df4359146102af578063248a9ca3146102d657600080fd5b806301ffc9a7146101ea57806307f7a0d71461021257806312d41bbf14610251575b600080fd5b6101fd6101f8366004611424565b61054f565b60405190151581526020015b60405180910390f35b6102397f000000000000000000000000000000000000000000000000000000000000000081565b6040516001600160a01b039091168152602001610209565b61026461025f366004611465565b610586565b604080516001600160a01b039093168352602083019190915201610209565b6102966102913660046114b0565b61061f565b005b6102a160055481565b604051908152602001610209565b6102a17fbf233dd2aafeb4d50879c4aa5c81e96d92f6e6945c906a58f9f2d1c1631b4b2681565b6102a16102e43660046114e7565b60009081526020819052604090206001015490565b610296610307366004611500565b61071b565b610296610746565b610296610322366004611500565b6108c2565b61026461033536600461152c565b6108fa565b61029661092f565b6102a161035036600461152c565b600760209081526000928352604080842090915290825290205481565b60015460ff166101fd565b6102397f000000000000000000000000000000000000000000000000000000000000000081565b6102397f000000000000000000000000000000000000000000000000000000000000000081565b6102a162093a8081565b61029661099d565b600454610239906001600160a01b031681565b600354610239906001600160a01b031681565b61023961040c366004611556565b610a09565b61023961041f366004611580565b610b81565b6101fd610432366004611500565b6000918252602082815260408084206001600160a01b0393909316845291905290205460ff1690565b6102a1600081565b6102397f000000000000000000000000000000000000000000000000000000000000000081565b610296610498366004611580565b610baf565b6102966104ab366004611500565b610d67565b6101fd6104be366004611580565b60066020526000908152604090205460ff1681565b600354600454600554604080516001600160a01b03948516815293909216602084015290820152606001610209565b7f0000000000000000000000000000000000000000000000000000000000000000610239565b6102a17ff66846415d2bf9eabda9e84793ff9c0ea96d87f50fc41e66aa16469c6a442f0581565b60006001600160e01b03198216637965db0b60e01b148061058057506301ffc9a760e01b6001600160e01b03198316145b92915050565b600080610594858585610d8c565b6040513060388201526f5af43d82803e903d91602b57fd5bf3ff60248201527f00000000000000000000000000000000000000000000000000000000000000006014820152733d602d80600a3d3981f3363d3d373d3d3d363d738152605881018290526037600c820120607882015260556043909101206001600160a01b0316969095509350505050565b336001600160a01b037f000000000000000000000000000000000000000000000000000000000000000016146106885760405163973d02cb60e01b815260206004820152600860248201526774696d656c6f636b60c01b60448201526064015b60405180910390fd5b6001600160a01b0382166106c7576040516305519d6f60e51b81526020600482015260056024820152643a37b5b2b760d91b604482015260640161067f565b6001600160a01b038216600081815260066020526040808220805460ff191685151590811790915590519092917ff79af2c7ac0c0ca46b120471b86e9c5a58e85f9089f9d53300648eb457ca6aa791a35050565b60008281526020819052604090206001015461073681610dd6565b6107408383610de3565b50505050565b336001600160a01b037f000000000000000000000000000000000000000000000000000000000000000016146107aa5760405163973d02cb60e01b815260206004820152600860248201526774696d656c6f636b60c01b604482015260640161067f565b6005546000036107fd576040516305519d6f60e51b815260206004820152600b60248201527f6e6f5f726f746174696f6e000000000000000000000000000000000000000000604482015260640161067f565b600554421061084f57604051631edf3f5560e01b815260206004820152600c60248201527f67726163655f706572696f640000000000000000000000000000000000000000604482015260640161067f565b600380546004805473ffffffffffffffffffffffffffffffffffffffff198084166001600160a01b0383811691821790965591169091556000600581905560405193909216929091839183917ffff96c7a2eef4dc9a2bf11c03549d1948fd36c6efd3230c079425640168d513091a35050565b6001600160a01b03811633146108eb5760405163334bd91960e11b815260040160405180910390fd5b6108f58282610e8d565b505050565b6001600160a01b0380831660009081526007602090815260408083209385168352929052908120548190610594858583610d8c565b336001600160a01b037f000000000000000000000000000000000000000000000000000000000000000016146109935760405163973d02cb60e01b815260206004820152600860248201526774696d656c6f636b60c01b604482015260640161067f565b61099b610f10565b565b336001600160a01b037f00000000000000000000000000000000000000000000000000000000000000001614610a015760405163973d02cb60e01b815260206004820152600860248201526733bab0b93234b0b760c11b604482015260640161067f565b61099b610f62565b6000610a13610f9d565b610a1b610fc1565b6001600160a01b03831660009081526006602052604090205460ff16610a6c576040516305519d6f60e51b81526020600482015260056024820152643a37b5b2b760d91b604482015260640161067f565b81600003610aa6576040516305519d6f60e51b8152602060048201526006602482015265185b5bdd5b9d60d21b604482015260640161067f565b604051636eb1769f60e11b81523360048201523060248201526000906001600160a01b0385169063dd62ed3e90604401602060405180830381865afa158015610af3573d6000803e3d6000fd5b505050506040513d601f19601f82011682018060405250810190610b17919061159b565b905082811015610b6a57604051631edf3f5560e01b815260206004820152601660248201527f696e73756666696369656e745f616c6c6f77616e636500000000000000000000604482015260640161067f565b610b748484610fe9565b9150506105806001600255565b6000610b8b610f9d565b610b93610fc1565b610b9e826000610fe9565b9050610baa6001600255565b919050565b336001600160a01b037f00000000000000000000000000000000000000000000000000000000000000001614610c135760405163973d02cb60e01b815260206004820152600860248201526774696d656c6f636b60c01b604482015260640161067f565b6001600160a01b038116610c56576040516305519d6f60e51b8152602060048201526009602482015268383ab13634b9b432b960b91b604482015260640161067f565b6003546001600160a01b0390811690821603610ca1576040516305519d6f60e51b8152602060048201526009602482015268383ab13634b9b432b960b91b604482015260640161067f565b426005541115610cdf576040516308d7458b60e11b81526020600482015260086024820152673937ba30ba34b7b760c11b604482015260640161067f565b60038054600480546001600160a01b0380841673ffffffffffffffffffffffffffffffffffffffff1992831617909255909116908316179055610d2562093a80426115ca565b60058190556004546040516001600160a01b038085169216907f7ec71211efcc5e02c963a1ad4c7fc8b7a6a4774ae6d1a396e383066dd80aec4190600090a450565b600082815260208190526040902060010154610d8281610dd6565b6107408383610e8d565b604080516001600160a01b038086166020830152841691810191909152606081018290526000906080016040516020818303038152906040528051906020012090505b9392505050565b610de08133611336565b50565b6000828152602081815260408083206001600160a01b038516845290915281205460ff16610e85576000838152602081815260408083206001600160a01b03861684529091529020805460ff19166001179055610e3d3390565b6001600160a01b0316826001600160a01b0316847f2f8788117e7eff1d82e926ec794901d17c78024a50270940304540a733656f0d60405160405180910390a4506001610580565b506000610580565b6000828152602081815260408083206001600160a01b038516845290915281205460ff1615610e85576000838152602081815260408083206001600160a01b0386168085529252808320805460ff1916905551339286917ff6391f5c32d9c69d2a47ea670b442974b53935d1edc7fd64eb21e047a839171b9190a4506001610580565b610f1861138d565b6001805460ff191690557f5db9ee0a495bf2e6ff9c91a7834c1ba4fdd244a5e8aa4e537bd38aeae4b073aa335b6040516001600160a01b03909116815260200160405180910390a1565b610f6a610f9d565b6001805460ff1916811790557f62e78cea01bee320cd4e420270b5ea74000d11b0c9f74754ebdbfc544b05a25833610f45565b60015460ff161561099b5760405163d93c066560e01b815260040160405180910390fd5b6002805403610fe357604051633ee5aeb560e01b815260040160405180910390fd5b60028055565b6001600160a01b03821660009081526006602052604081205460ff1661103a576040516305519d6f60e51b81526020600482015260056024820152643a37b5b2b760d91b604482015260640161067f565b3360008181526007602090815260408083206001600160a01b03881684529091528120549161106a908684610d8c565b90506110967f0000000000000000000000000000000000000000000000000000000000000000826113b0565b925060006110a5338785610586565b509050806001600160a01b0316846001600160a01b0316146110f457604051631edf3f5560e01b815260206004820152600760248201526631b932b0ba329960c91b604482015260640161067f565b3360009081526007602090815260408083206001600160a01b038a16845290915281208054909190611125906115dd565b9091555060405163c0c53b8b60e01b81526001600160a01b0387811660048301527f00000000000000000000000000000000000000000000000000000000000000008116602483015230604483015285169063c0c53b8b90606401600060405180830381600087803b15801561119a57600080fd5b505af11580156111ae573d6000803e3d6000fd5b5050505060008511156112e1576040516323b872dd60e01b81523360048201526001600160a01b03858116602483015260448201879052600091908816906323b872dd906064016020604051808303816000875af1158015611214573d6000803e3d6000fd5b505050506040513d601f19601f8201168201806040525081019061123891906115f6565b90508061128857604051631edf3f5560e01b815260206004820152600e60248201527f746f6b656e5f7472616e73666572000000000000000000000000000000000000604482015260640161067f565b60408051848152602081018690529081018790526001600160a01b03808916919087169033907f603ebc23a5117ad08f17d6c807e0e77e243f6e0d8d5a7ff74b2dce408c92a5c79060600160405180910390a45061132d565b60408051838152602081018590526001600160a01b03808916929087169133917f60827275ad3704debf746df19e99fcdadb12cf6ae0dbcf0c6444a39012a625fd910160405180910390a45b50505092915050565b6000828152602081815260408083206001600160a01b038516845290915290205460ff166113895760405163e2517d3f60e01b81526001600160a01b03821660048201526024810183905260440161067f565b5050565b60015460ff1661099b57604051638dfc202b60e01b815260040160405180910390fd5b6000610dcf83838380763d602d80600a3d3981f3363d3d373d3d3d363d730000008460601b60e81c176000526e5af43d82803e903d91602b57fd5bf38460781b17602052826037600984f590506001600160a01b038116610dcf5760405163b06ebf3d60e01b815260040160405180910390fd5b60006020828403121561143657600080fd5b81356001600160e01b031981168114610dcf57600080fd5b80356001600160a01b0381168114610baa57600080fd5b60008060006060848603121561147a57600080fd5b6114838461144e565b92506114916020850161144e565b929592945050506040919091013590565b8015158114610de057600080fd5b600080604083850312156114c357600080fd5b6114cc8361144e565b915060208301356114dc816114a2565b809150509250929050565b6000602082840312156114f957600080fd5b5035919050565b6000806040838503121561151357600080fd5b823591506115236020840161144e565b90509250929050565b6000806040838503121561153f57600080fd5b6115488361144e565b91506115236020840161144e565b6000806040838503121561156957600080fd5b6115728361144e565b946020939093013593505050565b60006020828403121561159257600080fd5b610dcf8261144e565b6000602082840312156115ad57600080fd5b5051919050565b634e487b7160e01b600052601160045260246000fd5b80820180821115610580576105806115b4565b6000600182016115ef576115ef6115b4565b5060010190565b60006020828403121561160857600080fd5b8151610dcf816114a256fea2646970667358221220113ed52d2da1ebf91d14ce7859ccdd7d52f6c33a539f3ddf15dabbc60b96f03b64736f6c634300081e0033",
  "linkReferences": {},
  "deployedLinkReferences": {}
}