{
  "_format": "hh-sol-artifact-1",
  "contractName": "RewardPoolFactory",
  "sourceName": "contracts/RewardPoolFactory.sol",
  "abi": [
    {
      "inputs": [
        {
          "internalType": "address",
          "name": "_poolImplementation",
          "type": "address"
        },
        {
          "internalType": "address",
          "name": "_platformTreasury",
          "type": "address"
        },
        {
          "internalType": "address",
          "name": "_timelock",
          "type": "address"
        },
        {
          "internalType": "address",
          "name": "_guardian",
          "type": "address"
        },
        {
          "internalType": "address",
          "name": "_publisher",
          "type": "address"
        }
      ],
      "stateMutability": "nonpayable",
      "type": "constructor"
    },
    {
      "inputs": [],
      "name": "AccessControlBadConfirmation",
      "type": "error"
    },
    {
      "inputs": [
        {
          "internalType": "address",
          "name": "account",
          "type": "address"
        },
        {
          "internalType": "bytes32",
          "name": "neededRole",
          "type": "bytes32"
        }
      ],
      "name": "AccessControlUnauthorizedAccount",
      "type": "error"
    },
    {
      "inputs": [
        {
          "internalType": "string",
          "name": "resource",
          "type": "string"
        }
      ],
      "name": "AlreadyExists",
      "type": "error"
    },
    {
      "inputs": [],
      "name": "EnforcedPause",
      "type": "error"
    },
    {
      "inputs": [],
      "name": "ExpectedPause",
      "type": "error"
    },
    {
      "inputs": [],
      "name": "FailedDeployment",
      "type": "error"
    },
    {
      "inputs": [
        {
          "internalType": "uint256",
          "name": "balance",
          "type": "uint256"
        },
        {
          "internalType": "uint256",
          "name": "needed",
          "type": "uint256"
        }
      ],
      "name": "InsufficientBalance",
      "type": "error"
    },
    {
      "inputs": [
        {
          "internalType": "string",
          "name": "param",
          "type": "string"
        }
      ],
      "name": "InvalidParameter",
      "type": "error"
    },
    {
      "inputs": [],
      "name": "ReentrancyGuardReentrantCall",
      "type": "error"
    },
    {
      "inputs": [
        {
          "internalType": "string",
          "name": "check",
          "type": "string"
        }
      ],
      "name": "SecurityViolation",
      "type": "error"
    },
    {
      "inputs": [
        {
          "internalType": "string",
          "name": "role",
          "type": "string"
        }
      ],
      "name": "Unauthorized",
      "type": "error"
    },
    {
      "anonymous": false,
      "inputs": [
        {
          "indexed": false,
          "internalType": "address",
          "name": "account",
          "type": "address"
        }
      ],
      "name": "Paused",
      "type": "event"
    },
    {
      "anonymous": false,
      "inputs": [
        {
          "indexed": true,
          "internalType": "address",
          "name": "creator",
          "type": "address"
        },
        {
          "indexed": true,
          "internalType": "address",
          "name": "pool",
          "type": "address"
        },
        {
          "indexed": true,
          "internalType": "address",
          "name": "token",
          "type": "address"
        },
        {
          "indexed": false,
          "internalType": "bytes32",
          "name": "salt",
          "type": "bytes32"
        },
        {
          "indexed": false,
          "internalType": "uint256",
          "name": "nonce",
          "type": "uint256"
        }
      ],
      "name": "PoolCreated",
      "type": "event"
    },
    {
      "anonymous": false,
      "inputs": [
        {
          "indexed": true,
          "internalType": "address",
          "name": "restoredPublisher",
          "type": "address"
        },
        {
          "indexed": true,
          "internalType": "address",
          "name": "cancelledPublisher",
          "type": "address"
        }
      ],
      "name": "PublisherRotationCancelled",
      "type": "event"
    },
    {
      "anonymous": false,
      "inputs": [
        {
          "indexed": true,
          "internalType": "address",
          "name": "oldPublisher",
          "type": "address"
        },
        {
          "indexed": true,
          "internalType": "address",
          "name": "newPublisher",
          "type": "address"
        },
        {
          "indexed": false,
          "internalType": "uint256",
          "name": "graceEndTime",
          "type": "uint256"
        }
      ],
      "name": "PublisherRotationInitiated",
      "type": "event"
    },
    {
      "anonymous": false,
      "inputs": [
        {
          "indexed": true,
          "internalType": "bytes32",
          "name": "role",
          "type": "bytes32"
        },
        {
          "indexed": true,
          "internalType": "bytes32",
          "name": "previousAdminRole",
          "type": "bytes32"
        },
        {
          "indexed": true,
          "internalType": "bytes32",
          "name": "newAdminRole",
          "type": "bytes32"
        }
      ],
      "name": "RoleAdminChanged",
      "type": "event"
    },
    {
      "anonymous": false,
      "inputs": [
        {
          "indexed": true,
          "internalType": "bytes32",
          "name": "role",
          "type": "bytes32"
        },
        {
          "indexed": true,
          "internalType": "address",
          "name": "account",
          "type": "address"
        },
        {
          "indexed": true,
          "internalType": "address",
          "name": "sender",
          "type": "address"
        }
      ],
      "name": "RoleGranted",
      "type": "event"
    },
    {
      "anonymous": false,
      "inputs": [
        {
          "indexed": true,
          "internalType": "bytes32",
          "name": "role",
          "type": "bytes32"
        },
        {
          "indexed": true,
          "internalType": "address",
          "name": "account",
          "type": "address"
        },
        {
          "indexed": true,
          "internalType": "address",
          "name": "sender",
          "type": "address"
        }
      ],
      "name": "RoleRevoked",
      "type": "event"
    },
    {
      "anonymous": false,
      "inputs": [
        {
          "indexed": true,
          "internalType": "address",
          "name": "token",
          "type": "address"
        },
        {
          "indexed": false,
          "internalType": "bool",
          "name": "allowed",
          "type": "bool"
        }
      ],
      "name": "TokenAllowedUpdated",
      "type": "event"
    },
    {
      "anonymous": false,
      "inputs": [
        {
          "indexed": false,
          "internalType": "address",
          "name": "account",
          "type": "address"
        }
      ],
      "name": "Unpaused",
      "type": "event"
    },
    {
      "inputs": [],
      "name": "DEFAULT_ADMIN_ROLE",
      "outputs": [
        {
          "internalType": "bytes32",
          "name": "",
          "type": "bytes32"
        }
      ],
      "stateMutability": "view",
      "type": "function"
    },
    {
      "inputs": [],
      "name": "EMERGENCY_ROLE",
      "outputs": [
        {
          "internalType": "bytes32",
          "name": "",
          "type": "bytes32"
        }
      ],
      "stateMutability": "view",
      "type": "function"
    },
    {
      "inputs": [],
      "name": "PUBLISHER_GRACE_PERIOD",
      "outputs": [
        {
          "internalType": "uint256",
          "name": "",
          "type": "uint256"
        }
      ],
      "stateMutability": "view",
      "type": "function"
    },
    {
      "inputs": [],
      "name": "TIMELOCK_ROLE",
      "outputs": [
        {
          "internalType": "bytes32",
          "name": "",
          "type": "bytes32"
        }
      ],
      "stateMutability": "view",
      "type": "function"
    },
    {
      "inputs": [
        {
          "internalType": "address",
          "name": "",
          "type": "address"
        }
      ],
      "name": "allowedTokens",
      "outputs": [
        {
          "internalType": "bool",
          "name": "",
          "type": "bool"
        }
      ],
      "stateMutability": "view",
      "type": "function"
    },
    {
      "inputs": [],
      "name": "cancelPublisherRotation",
      "outputs": [],
      "stateMutability": "nonpayable",
      "type": "function"
    },
    {
      "inputs": [
        {
          "internalType": "address",
          "name": "token",
          "type": "address"
        }
      ],
      "name": "createPool",
      "outputs": [
        {
          "internalType": "address",
          "name": "pool",
          "type": "address"
        }
      ],
      "stateMutability": "nonpayable",
      "type": "function"
    },
    {
      "inputs": [],
      "name": "getGuardianInfo",
      "outputs": [
        {
          "internalType": "address",
          "name": "",
          "type": "address"
        }
      ],
      "stateMutability": "view",
      "type": "function"
    },
    {
      "inputs": [],
      "name": "getPublisherInfo",
      "outputs": [
        {
          "internalType": "address",
          "name": "current",
          "type": "address"
        },
        {
          "internalType": "address",
          "name": "old",
          "type": "address"
        },
        {
          "internalType": "uint256",
          "name": "graceEnd",
          "type": "uint256"
        }
      ],
      "stateMutability": "view",
      "type": "function"
    },
    {
      "inputs": [
        {
          "internalType": "bytes32",
          "name": "role",
          "type": "bytes32"
        }
      ],
      "name": "getRoleAdmin",
      "outputs": [
        {
          "internalType": "bytes32",
          "name": "",
          "type": "bytes32"
        }
      ],
      "stateMutability": "view",
      "type": "function"
    },
    {
      "inputs": [],
      "name": "graceEndTime",
      "outputs": [
        {
          "internalType": "uint256",
          "name": "",
          "type": "uint256"
        }
      ],
      "stateMutability": "view",
      "type": "function"
    },
    {
      "inputs": [
        {
          "internalType": "bytes32",
          "name": "role",
          "type": "bytes32"
        },
        {
          "internalType": "address",
          "name": "account",
          "type": "address"
        }
      ],
      "name": "grantRole",
      "outputs": [],
      "stateMutability": "nonpayable",
      "type": "function"
    },
    {
      "inputs": [],
      "name": "guardian",
      "outputs": [
        {
          "internalType": "address",
          "name": "",
          "type": "address"
        }
      ],
      "stateMutability": "view",
      "type": "function"
    },
    {
      "inputs": [
        {
          "internalType": "bytes32",
          "name": "role",
          "type": "bytes32"
        },
        {
          "internalType": "address",
          "name": "account",
          "type": "address"
        }
      ],
      "name": "hasRole",
      "outputs": [
        {
          "internalType": "bool",
          "name": "",
          "type": "bool"
        }
      ],
      "stateMutability": "view",
      "type": "function"
    },
    {
      "inputs": [
        {
          "internalType": "address",
          "name": "newPublisher",
          "type": "address"
        }
      ],
      "name": "initiatePublisherRotation",
      "outputs": [],
      "stateMutability": "nonpayable",
      "type": "function"
    },
    {
      "inputs": [],
      "name": "oldPublisher",
      "outputs": [
        {
          "internalType": "address",
          "name": "",
          "type": "address"
        }
      ],
      "stateMutability": "view",
      "type": "function"
    },
    {
      "inputs": [],
      "name": "pause",
      "outputs": [],
      "stateMutability": "nonpayable",
      "type": "function"
    },
    {
      "inputs": [],
      "name": "paused",
      "outputs": [
        {
          "internalType": "bool",
          "name": "",
          "type": "bool"
        }
      ],
      "stateMutability": "view",
      "type": "function"
    },
    {
      "inputs": [],
      "name": "platformTreasury",
      "outputs": [
        {
          "internalType": "address",
          "name": "",
          "type": "address"
        }
      ],
      "stateMutability": "view",
      "type": "function"
    },
    {
      "inputs": [],
      "name": "poolImplementation",
      "outputs": [
        {
          "internalType": "address",
          "name": "",
          "type": "address"
        }
      ],
      "stateMutability": "view",
      "type": "function"
    },
    {
      "inputs": [
        {
          "internalType": "address",
          "name": "",
          "type": "address"
        },
        {
          "internalType": "address",
          "name": "",
          "type": "address"
        }
      ],
      "name": "poolNonce",
      "outputs": [
        {
          "internalType": "uint256",
          "name": "",
          "type": "uint256"
        }
      ],
      "stateMutability": "view",
      "type": "function"
    },
    {
      "inputs": [
        {
          "internalType": "address",
          "name": "creator",
          "type": "address"
        },
        {
          "internalType": "address",
          "name": "token",
          "type": "address"
        }
      ],
      "name": "predictPoolAddress",
      "outputs": [
        {
          "internalType": "address",
          "name": "predicted",
          "type": "address"
        },
        {
          "internalType": "bytes32",
          "name": "salt",
          "type": "bytes32"
        }
      ],
      "stateMutability": "view",
      "type": "function"
    },
    {
      "inputs": [
        {
          "internalType": "address",
          "name": "creator",
          "type": "address"
        },
        {
          "internalType": "address",
          "name": "token",
          "type": "address"
        },
        {
          "internalType": "uint256",
          "name": "nonce",
          "type": "uint256"
        }
      ],
      "name": "predictPoolAddressWithNonce",
      "outputs": [
        {
          "internalType": "address",
          "name": "predicted",
          "type": "address"
        },
        {
          "internalType": "bytes32",
          "name": "salt",
          "type": "bytes32"
        }
      ],
      "stateMutability": "view",
      "type": "function"
    },
    {
      "inputs": [],
      "name": "publisher",
      "outputs": [
        {
          "internalType": "address",
          "name": "",
          "type": "address"
        }
      ],
      "stateMutability": "view",
      "type": "function"
    },
    {
      "inputs": [
        {
          "internalType": "bytes32",
          "name": "role",
          "type": "bytes32"
        },
        {
          "internalType": "address",
          "name": "callerConfirmation",
          "type": "address"
        }
      ],
      "name": "renounceRole",
      "outputs": [],
      "stateMutability": "nonpayable",
      "type": "function"
    },
    {
      "inputs": [
        {
          "internalType": "bytes32",
          "name": "role",
          "type": "bytes32"
        },
        {
          "internalType": "address",
          "name": "account",
          "type": "address"
        }
      ],
      "name": "revokeRole",
      "outputs": [],
      "stateMutability": "nonpayable",
      "type": "function"
    },
    {
      "inputs": [
        {
          "internalType": "address",
          "name": "token",
          "type": "address"
        },
        {
          "internalType": "bool",
          "name": "allowed",
          "type": "bool"
        }
      ],
      "name": "setTokenAllowed",
      "outputs": [],
      "stateMutability": "nonpayable",
      "type": "function"
    },
    {
      "inputs": [
        {
          "internalType": "bytes4",
          "name": "interfaceId",
          "type": "bytes4"
        }
      ],
      "name": "supportsInterface",
      "outputs": [
        {
          "internalType": "bool",
          "name": "",
          "type": "bool"
        }
      ],
      "stateMutability": "view",
      "type": "function"
    },
    {
      "inputs": [],
      "name": "timelock",
      "outputs": [
        {
          "internalType": "address",
          "name": "",
          "type": "address"
        }
      ],
      "stateMutability": "view",
      "type": "function"
    },
    {
      "inputs": [],
      "name": "unpause",
      "outputs": [],
      "stateMutability": "nonpayable",
      "type": "function"
    }
  ],
  "bytecode": "0x61010060405234801561001157600080fd5b50604051611724380380611724833981016040819052610030916102f6565b60016002556001600160a01b038516610082576040516305519d6f60e51b815260206004820152600e60248201526d34b6b83632b6b2b73a30ba34b7b760911b60448201526064015b60405180910390fd5b6001600160a01b0384166100c4576040516305519d6f60e51b8152602060048201526008602482015267747265617375727960c01b6044820152606401610079565b6001600160a01b038316610106576040516305519d6f60e51b815260206004820152600860248201526774696d656c6f636b60c01b6044820152606401610079565b6001600160a01b038216610148576040516305519d6f60e51b815260206004820152600860248201526733bab0b93234b0b760c11b6044820152606401610079565b6001600160a01b03811661018b576040516305519d6f60e51b8152602060048201526009602482015268383ab13634b9b432b960b91b6044820152606401610079565b6001600160a01b0385811660805284811660a05283811660c05282811660e052600380546001600160a01b0319169183169190911790556101cd60008461022e565b506101f87ff66846415d2bf9eabda9e84793ff9c0ea96d87f50fc41e66aa16469c6a442f058461022e565b506102237fbf233dd2aafeb4d50879c4aa5c81e96d92f6e6945c906a58f9f2d1c1631b4b268361022e565b50505050505061035b565b6000828152602081815260408083206001600160a01b038516845290915281205460ff166102d0576000838152602081815260408083206001600160a01b03861684529091529020805460ff191660011790556102883390565b6001600160a01b0316826001600160a01b0316847f2f8788117e7eff1d82e926ec794901d17c78024a50270940304540a733656f0d60405160405180910390a45060016102d4565b5060005b92915050565b80516001600160a01b03811681146102f157600080fd5b919050565b600080600080600060a0868803121561030e57600080fd5b610317866102da565b9450610325602087016102da565b9350610333604087016102da565b9250610341606087016102da565b915061034f608087016102da565b90509295509295909350565b60805160a05160c05160e0516113516103d3600039600081816102fd015281816104e601526109950152600081816104360152818161060c0152818161073e015281816109270152610c3d0152600081816104700152610b6c01526000818161040f015281816105970152610a9001526113516000f3fe608060405234801561001057600080fd5b50600436106101da5760003560e01c80638456cb5911610104578063cefa7799116100a2578063e744092e11610071578063e744092e14610492578063f0c597c8146104b5578063f21b0d82146104e4578063f288a2e21461050a57600080fd5b8063cefa77991461040a578063d33219b414610431578063d547741f14610458578063e138818c1461046b57600080fd5b80639049f9d2116100de5780639049f9d2146103a557806391d14854146103b8578063a217fddf146103ef578063b51bbf58146103f757600080fd5b80638456cb5914610377578063882c27921461037f5780638c72c54e1461039257600080fd5b806335ffdcad1161017c578063452a93201161014b578063452a9320146102f8578063570ef46b146103375780635c975abb146103625780638327032a1461036d57600080fd5b806335ffdcad146102c257806336568abe146102ca5780633dd680e6146102dd5780633f4ba83a146102f057600080fd5b80631b3c1a78116101b85780631b3c1a781461024e57806320df435914610265578063248a9ca31461028c5780632f2ff15d146102af57600080fd5b806301ffc9a7146101df57806312d41bbf1461020757806315f6901214610239575b600080fd5b6101f26101ed366004611196565b610531565b60405190151581526020015b60405180910390f35b61021a6102153660046111d7565b610568565b604080516001600160a01b0390931683526020830191909152016101fe565b61024c610247366004611213565b610601565b005b61025760055481565b6040519081526020016101fe565b6102577fbf233dd2aafeb4d50879c4aa5c81e96d92f6e6945c906a58f9f2d1c1631b4b2681565b61025761029a36600461124f565b60009081526020819052604090206001015490565b61024c6102bd366004611268565b610708565b61024c610733565b61024c6102d8366004611268565b6108af565b61021a6102eb366004611294565b6108e7565b61024c61091c565b61031f7f000000000000000000000000000000000000000000000000000000000000000081565b6040516001600160a01b0390911681526020016101fe565b610257610345366004611294565b600760209081526000928352604080842090915290825290205481565b60015460ff166101f2565b61025762093a8081565b61024c61098a565b60045461031f906001600160a01b031681565b60035461031f906001600160a01b031681565b61031f6103b33660046112be565b6109f6565b6101f26103c6366004611268565b6000918252602082815260408084206001600160a01b0393909316845291905290205460ff1690565b610257600081565b61024c6104053660046112be565b610c32565b61031f7f000000000000000000000000000000000000000000000000000000000000000081565b61031f7f000000000000000000000000000000000000000000000000000000000000000081565b61024c610466366004611268565b610df5565b61031f7f000000000000000000000000000000000000000000000000000000000000000081565b6101f26104a03660046112be565b60066020526000908152604090205460ff1681565b600354600454600554604080516001600160a01b039485168152939092166020840152908201526060016101fe565b7f000000000000000000000000000000000000000000000000000000000000000061031f565b6102577ff66846415d2bf9eabda9e84793ff9c0ea96d87f50fc41e66aa16469c6a442f0581565b60006001600160e01b03198216637965db0b60e01b148061056257506301ffc9a760e01b6001600160e01b03198316145b92915050565b600080610576858585610e1a565b6040513060388201526f5af43d82803e903d91602b57fd5bf3ff60248201527f00000000000000000000000000000000000000000000000000000000000000006014820152733d602d80600a3d3981f3363d3d373d3d3d363d738152605881018290526037600c820120607882015260556043909101206001600160a01b0316969095509350505050565b336001600160a01b037f0000000000000000000000000000000000000000000000000000000000000000161461066a5760405163973d02cb60e01b815260206004820152600860248201526774696d656c6f636b60c01b60448201526064015b60405180910390fd5b6001600160a01b0382166106a9576040516305519d6f60e51b81526020600482015260056024820152643a37b5b2b760d91b6044820152606401610661565b6001600160a01b038216600081815260066020908152604091829020805460ff191685151590811790915591519182527ff79af2c7ac0c0ca46b120471b86e9c5a58e85f9089f9d53300648eb457ca6aa7910160405180910390a25050565b60008281526020819052604090206001015461072381610e64565b61072d8383610e71565b50505050565b336001600160a01b037f000000000000000000000000000000000000000000000000000000000000000016146107975760405163973d02cb60e01b815260206004820152600860248201526774696d656c6f636b60c01b6044820152606401610661565b6005546000036107ea576040516305519d6f60e51b815260206004820152600b60248201527f6e6f5f726f746174696f6e0000000000000000000000000000000000000000006044820152606401610661565b600554421061083c57604051631edf3f5560e01b815260206004820152600c60248201527f67726163655f706572696f6400000000000000000000000000000000000000006044820152606401610661565b600380546004805473ffffffffffffffffffffffffffffffffffffffff198084166001600160a01b0383811691821790965591169091556000600581905560405193909216929091839183917ffff96c7a2eef4dc9a2bf11c03549d1948fd36c6efd3230c079425640168d513091a35050565b6001600160a01b03811633146108d85760405163334bd91960e11b815260040160405180910390fd5b6108e28282610f1b565b505050565b6001600160a01b0380831660009081526007602090815260408083209385168352929052908120548190610576858583610e1a565b336001600160a01b037f000000000000000000000000000000000000000000000000000000000000000016146109805760405163973d02cb60e01b815260206004820152600860248201526774696d656c6f636b60c01b6044820152606401610661565b610988610f9e565b565b336001600160a01b037f000000000000000000000000000000000000000000000000000000000000000016146109ee5760405163973d02cb60e01b815260206004820152600860248201526733bab0b93234b0b760c11b6044820152606401610661565b610988610ff0565b6000610a0061102b565b610a0861104f565b6001600160a01b03821660009081526006602052604090205460ff16610a59576040516305519d6f60e51b81526020600482015260056024820152643a37b5b2b760d91b6044820152606401610661565b3360008181526007602090815260408083206001600160a01b038716845290915281205491610a89908584610e1a565b9050610ab57f000000000000000000000000000000000000000000000000000000000000000082611077565b92506000610ac4338685610568565b509050806001600160a01b0316846001600160a01b031614610b1357604051631edf3f5560e01b815260206004820152600760248201526631b932b0ba329960c91b6044820152606401610661565b3360009081526007602090815260408083206001600160a01b03891684529091528120805491610b42836112ef565b9091555050604051637c643b2f60e11b81526001600160a01b0386811660048301523360248301527f00000000000000000000000000000000000000000000000000000000000000008116604483015230606483015285169063f8c8765e90608401600060405180830381600087803b158015610bbe57600080fd5b505af1158015610bd2573d6000803e3d6000fd5b505060408051858152602081018790526001600160a01b03808a1694508816925033917f60827275ad3704debf746df19e99fcdadb12cf6ae0dbcf0c6444a39012a625fd910160405180910390a4505050610c2d6001600255565b919050565b336001600160a01b037f00000000000000000000000000000000000000000000000000000000000000001614610c965760405163973d02cb60e01b815260206004820152600860248201526774696d656c6f636b60c01b6044820152606401610661565b6001600160a01b038116610cd9576040516305519d6f60e51b8152602060048201526009602482015268383ab13634b9b432b960b91b6044820152606401610661565b6003546001600160a01b0390811690821603610d24576040516305519d6f60e51b8152602060048201526009602482015268383ab13634b9b432b960b91b6044820152606401610661565b426005541115610d62576040516308d7458b60e11b81526020600482015260086024820152673937ba30ba34b7b760c11b6044820152606401610661565b60038054600480546001600160a01b0380841673ffffffffffffffffffffffffffffffffffffffff1992831617909255909116908316179055610da862093a8042611308565b60058190556004546040519182526001600160a01b03838116929116907f7ec71211efcc5e02c963a1ad4c7fc8b7a6a4774ae6d1a396e383066dd80aec419060200160405180910390a350565b600082815260208190526040902060010154610e1081610e64565b61072d8383610f1b565b604080516001600160a01b038086166020830152841691810191909152606081018290526000906080016040516020818303038152906040528051906020012090505b9392505050565b610e6e8133611085565b50565b6000828152602081815260408083206001600160a01b038516845290915281205460ff16610f13576000838152602081815260408083206001600160a01b03861684529091529020805460ff19166001179055610ecb3390565b6001600160a01b0316826001600160a01b0316847f2f8788117e7eff1d82e926ec794901d17c78024a50270940304540a733656f0d60405160405180910390a4506001610562565b506000610562565b6000828152602081815260408083206001600160a01b038516845290915281205460ff1615610f13576000838152602081815260408083206001600160a01b0386168085529252808320805460ff1916905551339286917ff6391f5c32d9c69d2a47ea670b442974b53935d1edc7fd64eb21e047a839171b9190a4506001610562565b610fa66110dc565b6001805460ff191690557f5db9ee0a495bf2e6ff9c91a7834c1ba4fdd244a5e8aa4e537bd38aeae4b073aa335b6040516001600160a01b03909116815260200160405180910390a1565b610ff861102b565b6001805460ff1916811790557f62e78cea01bee320cd4e420270b5ea74000d11b0c9f74754ebdbfc544b05a25833610fd3565b60015460ff16156109885760405163d93c066560e01b815260040160405180910390fd5b600280540361107157604051633ee5aeb560e01b815260040160405180910390fd5b60028055565b6000610e5d838360006110ff565b6000828152602081815260408083206001600160a01b038516845290915290205460ff166110d85760405163e2517d3f60e01b81526001600160a01b038216600482015260248101839052604401610661565b5050565b60015460ff1661098857604051638dfc202b60e01b815260040160405180910390fd5b60008147101561112b5760405163cf47918160e01b815247600482015260248101839052604401610661565b763d602d80600a3d3981f3363d3d373d3d3d363d730000008460601b60e81c176000526e5af43d82803e903d91602b57fd5bf38460781b17602052826037600984f590506001600160a01b038116610e5d5760405163b06ebf3d60e01b815260040160405180910390fd5b6000602082840312156111a857600080fd5b81356001600160e01b031981168114610e5d57600080fd5b80356001600160a01b0381168114610c2d57600080fd5b6000806000606084860312156111ec57600080fd5b6111f5846111c0565b9250611203602085016111c0565b9150604084013590509250925092565b6000806040838503121561122657600080fd5b61122f836111c0565b91506020830135801515811461124457600080fd5b809150509250929050565b60006020828403121561126157600080fd5b5035919050565b6000806040838503121561127b57600080fd5b8235915061128b602084016111c0565b90509250929050565b600080604083850312156112a757600080fd5b6112b0836111c0565b915061128b602084016111c0565b6000602082840312156112d057600080fd5b610e5d826111c0565b634e487b7160e01b600052601160045260246000fd5b600060018201611301576113016112d9565b5060010190565b80820180821115610562576105626112d956fea2646970667358221220a2fe6b90aed406b63cbfd9dc6274a0e24f3a9f1c0610a32d682b67339d5a778964736f6c634300081e0033",
  "linkReferences": {},
  "deployedLinkReferences": {}
}